{
  "contractName": "ContendersEGNFT",
  "abi": [
    {
      "inputs": [
        {
          "internalType": "address",
          "name": "operator",
          "type": "address"
        }
      ],
      "name": "OperatorNotAllowed",
      "type": "error"
    },
    {
      "anonymous": false,
      "inputs": [
        {
          "indexed": true,
          "internalType": "address",
          "name": "owner",
          "type": "address"
        },
        {
          "indexed": true,
          "internalType": "address",
          "name": "approved",
          "type": "address"
        },
        {
          "indexed": true,
          "internalType": "uint256",
          "name": "tokenId",
          "type": "uint256"
        }
      ],
      "name": "Approval",
      "type": "event"
    },
    {
      "anonymous": false,
      "inputs": [
        {
          "indexed": true,
          "internalType": "address",
          "name": "owner",
          "type": "address"
        },
        {
          "indexed": true,
          "internalType": "address",
          "name": "operator",
          "type": "address"
        },
        {
          "indexed": false,
          "internalType": "bool",
          "name": "approved",
          "type": "bool"
        }
      ],
      "name": "ApprovalForAll",
      "type": "event"
    },
    {
      "anonymous": false,
      "inputs": [
        {
          "indexed": true,
          "internalType": "address",
          "name": "_from",
          "type": "address"
        },
        {
          "indexed": false,
          "internalType": "uint256",
          "name": "_id",
          "type": "uint256"
        }
      ],
      "name": "Burn",
      "type": "event"
    },
    {
      "anonymous": false,
      "inputs": [
        {
          "indexed": false,
          "internalType": "uint8",
          "name": "version",
          "type": "uint8"
        }
      ],
      "name": "Initialized",
      "type": "event"
    },
    {
      "anonymous": false,
      "inputs": [
        {
          "indexed": true,
          "internalType": "address",
          "name": "_minter",
          "type": "address"
        },
        {
          "indexed": true,
          "internalType": "address",
          "name": "_owner",
          "type": "address"
        },
        {
          "indexed": false,
          "internalType": "uint256",
          "name": "_id",
          "type": "uint256"
        }
      ],
      "name": "Mint",
      "type": "event"
    },
    {
      "anonymous": false,
      "inputs": [
        {
          "indexed": true,
          "internalType": "address",
          "name": "previousOwner",
          "type": "address"
        },
        {
          "indexed": true,
          "internalType": "address",
          "name": "newOwner",
          "type": "address"
        }
      ],
      "name": "OwnershipTransferred",
      "type": "event"
    },
    {
      "anonymous": false,
      "inputs": [
        {
          "indexed": false,
          "internalType": "address",
          "name": "account",
          "type": "address"
        }
      ],
      "name": "Paused",
      "type": "event"
    },
    {
      "anonymous": false,
      "inputs": [
        {
          "indexed": true,
          "internalType": "address",
          "name": "from",
          "type": "address"
        },
        {
          "indexed": true,
          "internalType": "address",
          "name": "to",
          "type": "address"
        },
        {
          "indexed": true,
          "internalType": "uint256",
          "name": "tokenId",
          "type": "uint256"
        }
      ],
      "name": "Transfer",
      "type": "event"
    },
    {
      "anonymous": false,
      "inputs": [
        {
          "indexed": false,
          "internalType": "address",
          "name": "account",
          "type": "address"
        }
      ],
      "name": "Unpaused",
      "type": "event"
    },
    {
      "inputs": [
        {
          "internalType": "address",
          "name": "owner",
          "type": "address"
        }
      ],
      "name": "balanceOf",
      "outputs": [
        {
          "internalType": "uint256",
          "name": "",
          "type": "uint256"
        }
      ],
      "stateMutability": "view",
      "type": "function"
    },
    {
      "inputs": [],
      "name": "baseMetadataURI",
      "outputs": [
        {
          "internalType": "string",
          "name": "",
          "type": "string"
        }
      ],
      "stateMutability": "view",
      "type": "function"
    },
    {
      "inputs": [
        {
          "internalType": "uint256",
          "name": "tokenId",
          "type": "uint256"
        }
      ],
      "name": "getApproved",
      "outputs": [
        {
          "internalType": "address",
          "name": "",
          "type": "address"
        }
      ],
      "stateMutability": "view",
      "type": "function"
    },
    {
      "inputs": [
        {
          "internalType": "address",
          "name": "owner",
          "type": "address"
        },
        {
          "internalType": "address",
          "name": "operator",
          "type": "address"
        }
      ],
      "name": "isApprovedForAll",
      "outputs": [
        {
          "internalType": "bool",
          "name": "",
          "type": "bool"
        }
      ],
      "stateMutability": "view",
      "type": "function"
    },
    {
      "inputs": [],
      "name": "isRevealed",
      "outputs": [
        {
          "internalType": "bool",
          "name": "",
          "type": "bool"
        }
      ],
      "stateMutability": "view",
      "type": "function"
    },
    {
      "inputs": [],
      "name": "isStopped",
      "outputs": [
        {
          "internalType": "bool",
          "name": "",
          "type": "bool"
        }
      ],
      "stateMutability": "view",
      "type": "function"
    },
    {
      "inputs": [],
      "name": "maxNFTSPerPublic",
      "outputs": [
        {
          "internalType": "uint256",
          "name": "",
          "type": "uint256"
        }
      ],
      "stateMutability": "view",
      "type": "function"
    },
    {
      "inputs": [],
      "name": "maxNFTSPerSuper",
      "outputs": [
        {
          "internalType": "uint256",
          "name": "",
          "type": "uint256"
        }
      ],
      "stateMutability": "view",
      "type": "function"
    },
    {
      "inputs": [],
      "name": "mintCost",
      "outputs": [
        {
          "internalType": "uint256",
          "name": "",
          "type": "uint256"
        }
      ],
      "stateMutability": "view",
      "type": "function"
    },
    {
      "inputs": [
        {
          "internalType": "address",
          "name": "",
          "type": "address"
        }
      ],
      "name": "mintedNFTSPerPublic",
      "outputs": [
        {
          "internalType": "uint256",
          "name": "",
          "type": "uint256"
        }
      ],
      "stateMutability": "view",
      "type": "function"
    },
    {
      "inputs": [
        {
          "internalType": "address",
          "name": "",
          "type": "address"
        }
      ],
      "name": "mintedNFTSPerSuper",
      "outputs": [
        {
          "internalType": "uint256",
          "name": "",
          "type": "uint256"
        }
      ],
      "stateMutability": "view",
      "type": "function"
    },
    {
      "inputs": [],
      "name": "name",
      "outputs": [
        {
          "internalType": "string",
          "name": "",
          "type": "string"
        }
      ],
      "stateMutability": "view",
      "type": "function"
    },
    {
      "inputs": [],
      "name": "owner",
      "outputs": [
        {
          "internalType": "address",
          "name": "",
          "type": "address"
        }
      ],
      "stateMutability": "view",
      "type": "function"
    },
    {
      "inputs": [
        {
          "internalType": "uint256",
          "name": "tokenId",
          "type": "uint256"
        }
      ],
      "name": "ownerOf",
      "outputs": [
        {
          "internalType": "address",
          "name": "",
          "type": "address"
        }
      ],
      "stateMutability": "view",
      "type": "function"
    },
    {
      "inputs": [],
      "name": "paused",
      "outputs": [
        {
          "internalType": "bool",
          "name": "",
          "type": "bool"
        }
      ],
      "stateMutability": "view",
      "type": "function"
    },
    {
      "inputs": [],
      "name": "publicSupply",
      "outputs": [
        {
          "internalType": "uint256",
          "name": "",
          "type": "uint256"
        }
      ],
      "stateMutability": "view",
      "type": "function"
    },
    {
      "inputs": [],
      "name": "renounceOwnership",
      "outputs": [],
      "stateMutability": "nonpayable",
      "type": "function"
    },
    {
      "inputs": [],
      "name": "root",
      "outputs": [
        {
          "internalType": "bytes32",
          "name": "",
          "type": "bytes32"
        }
      ],
      "stateMutability": "view",
      "type": "function"
    },
    {
      "inputs": [
        {
          "internalType": "uint256",
          "name": "_tokenId",
          "type": "uint256"
        },
        {
          "internalType": "uint256",
          "name": "_salePrice",
          "type": "uint256"
        }
      ],
      "name": "royaltyInfo",
      "outputs": [
        {
          "internalType": "address",
          "name": "",
          "type": "address"
        },
        {
          "internalType": "uint256",
          "name": "",
          "type": "uint256"
        }
      ],
      "stateMutability": "view",
      "type": "function"
    },
    {
      "inputs": [],
      "name": "superSupply",
      "outputs": [
        {
          "internalType": "uint256",
          "name": "",
          "type": "uint256"
        }
      ],
      "stateMutability": "view",
      "type": "function"
    },
    {
      "inputs": [],
      "name": "symbol",
      "outputs": [
        {
          "internalType": "string",
          "name": "",
          "type": "string"
        }
      ],
      "stateMutability": "view",
      "type": "function"
    },
    {
      "inputs": [
        {
          "internalType": "address",
          "name": "newOwner",
          "type": "address"
        }
      ],
      "name": "transferOwnership",
      "outputs": [],
      "stateMutability": "nonpayable",
      "type": "function"
    },
    {
      "inputs": [],
      "name": "withheldSupply",
      "outputs": [
        {
          "internalType": "uint256",
          "name": "",
          "type": "uint256"
        }
      ],
      "stateMutability": "view",
      "type": "function"
    },
    {
      "inputs": [],
      "name": "initialize",
      "outputs": [],
      "stateMutability": "nonpayable",
      "type": "function"
    },
    {
      "inputs": [
        {
          "internalType": "bytes4",
          "name": "interfaceId",
          "type": "bytes4"
        }
      ],
      "name": "supportsInterface",
      "outputs": [
        {
          "internalType": "bool",
          "name": "",
          "type": "bool"
        }
      ],
      "stateMutability": "view",
      "type": "function"
    },
    {
      "inputs": [
        {
          "internalType": "bytes32[]",
          "name": "_proof",
          "type": "bytes32[]"
        },
        {
          "internalType": "bytes32",
          "name": "_leaf",
          "type": "bytes32"
        }
      ],
      "name": "isValid",
      "outputs": [
        {
          "internalType": "bool",
          "name": "",
          "type": "bool"
        }
      ],
      "stateMutability": "view",
      "type": "function"
    },
    {
      "inputs": [
        {
          "internalType": "bytes32",
          "name": "_root",
          "type": "bytes32"
        }
      ],
      "name": "setRoot",
      "outputs": [],
      "stateMutability": "nonpayable",
      "type": "function"
    },
    {
      "inputs": [
        {
          "internalType": "uint256",
          "name": "_numberOfNFTs",
          "type": "uint256"
        }
      ],
      "name": "mintPublic",
      "outputs": [],
      "stateMutability": "payable",
      "type": "function"
    },
    {
      "inputs": [],
      "name": "mintSuper",
      "outputs": [],
      "stateMutability": "payable",
      "type": "function"
    },
    {
      "inputs": [
        {
          "internalType": "address",
          "name": "_to",
          "type": "address"
        },
        {
          "internalType": "uint256",
          "name": "_numberOfNFTs",
          "type": "uint256"
        }
      ],
      "name": "mintWithheld",
      "outputs": [],
      "stateMutability": "nonpayable",
      "type": "function"
    },
    {
      "inputs": [
        {
          "internalType": "uint256",
          "name": "_id",
          "type": "uint256"
        }
      ],
      "name": "burn",
      "outputs": [],
      "stateMutability": "nonpayable",
      "type": "function"
    },
    {
      "inputs": [],
      "name": "revealAll",
      "outputs": [],
      "stateMutability": "nonpayable",
      "type": "function"
    },
    {
      "inputs": [
        {
          "internalType": "uint256",
          "name": "_id",
          "type": "uint256"
        }
      ],
      "name": "tokenURI",
      "outputs": [
        {
          "internalType": "string",
          "name": "",
          "type": "string"
        }
      ],
      "stateMutability": "view",
      "type": "function"
    },
    {
      "inputs": [
        {
          "internalType": "address",
          "name": "operator",
          "type": "address"
        },
        {
          "internalType": "bool",
          "name": "approved",
          "type": "bool"
        }
      ],
      "name": "setApprovalForAll",
      "outputs": [],
      "stateMutability": "nonpayable",
      "type": "function"
    },
    {
      "inputs": [
        {
          "internalType": "address",
          "name": "operator",
          "type": "address"
        },
        {
          "internalType": "uint256",
          "name": "tokenId",
          "type": "uint256"
        }
      ],
      "name": "approve",
      "outputs": [],
      "stateMutability": "nonpayable",
      "type": "function"
    },
    {
      "inputs": [
        {
          "internalType": "address",
          "name": "from",
          "type": "address"
        },
        {
          "internalType": "address",
          "name": "to",
          "type": "address"
        },
        {
          "internalType": "uint256",
          "name": "tokenId",
          "type": "uint256"
        }
      ],
      "name": "transferFrom",
      "outputs": [],
      "stateMutability": "nonpayable",
      "type": "function"
    },
    {
      "inputs": [
        {
          "internalType": "address",
          "name": "from",
          "type": "address"
        },
        {
          "internalType": "address",
          "name": "to",
          "type": "address"
        },
        {
          "internalType": "uint256",
          "name": "tokenId",
          "type": "uint256"
        }
      ],
      "name": "safeTransferFrom",
      "outputs": [],
      "stateMutability": "nonpayable",
      "type": "function"
    },
    {
      "inputs": [
        {
          "internalType": "address",
          "name": "from",
          "type": "address"
        },
        {
          "internalType": "address",
          "name": "to",
          "type": "address"
        },
        {
          "internalType": "uint256",
          "name": "tokenId",
          "type": "uint256"
        },
        {
          "internalType": "bytes",
          "name": "data",
          "type": "bytes"
        }
      ],
      "name": "safeTransferFrom",
      "outputs": [],
      "stateMutability": "nonpayable",
      "type": "function"
    },
    {
      "inputs": [
        {
          "internalType": "address",
          "name": "_to",
          "type": "address"
        }
      ],
      "name": "withdraw",
      "outputs": [],
      "stateMutability": "nonpayable",
      "type": "function"
    },
    {
      "inputs": [
        {
          "internalType": "uint256",
          "name": "_cost",
          "type": "uint256"
        }
      ],
      "name": "setMintCost",
      "outputs": [],
      "stateMutability": "nonpayable",
      "type": "function"
    },
    {
      "inputs": [
        {
          "internalType": "string",
          "name": "_newBaseMetadataUri",
          "type": "string"
        }
      ],
      "name": "setBaseMetadataURI",
      "outputs": [],
      "stateMutability": "nonpayable",
      "type": "function"
    },
    {
      "inputs": [
        {
          "internalType": "bool",
          "name": "_action",
          "type": "bool"
        }
      ],
      "name": "setAction",
      "outputs": [],
      "stateMutability": "nonpayable",
      "type": "function"
    },
    {
      "inputs": [],
      "name": "addToPublicSupply",
      "outputs": [],
      "stateMutability": "nonpayable",
      "type": "function"
    }
  ],
  "bytecode": "0x608060405234801561001057600080fd5b506156f380620000216000396000f3fe60806040526004361061025c5760003560e01c8063715018a611610144578063b8a20ed0116100b6578063dab5f3401161007a578063dab5f340146108d5578063e20d4600146108fe578063e985e9c514610908578063ebf0c71714610945578063efd0cbf914610970578063f2fde38b1461098c5761025c565b8063b8a20ed0146107dc578063bdb4b84814610819578063bec82ed014610844578063c87b56dd14610881578063d2ec1b57146108be5761025c565b80638da5cb5b116101085780638da5cb5b146106cc57806395d89b41146106f75780639789ddbb14610722578063a22cb4651461075f578063a2e03dd014610788578063b88d4fde146107b35761025c565b8063715018a614610621578063785d783f146106385780637e518ec8146106635780638129fc1c1461068c5780638545f4ea146106a35761025c565b806342966c68116101dd5780635c975abb116101a15780635c975abb146104fb5780635e84d7231461052657806360db8608146105515780636352211e1461057c57806367988bee146105b957806370a08231146105e45761025c565b806342966c681461043c57806342d0e74e1461046557806351cff8d91461047c57806354214f69146104a55780635b2bd79e146104d05761025c565b80630bd5233a116102245780630bd5233a1461035857806323b872dd146103815780632a55205a146103aa5780633f683b6a146103e857806342842e0e146104135761025c565b806301ffc9a71461026157806306fdde031461029e578063081812fc146102c9578063095ea7b3146103065780630a3397391461032f575b600080fd5b34801561026d57600080fd5b506102886004803603810190610283919061397e565b6109b5565b60405161029591906139c6565b60405180910390f35b3480156102aa57600080fd5b506102b36109c7565b6040516102c09190613a71565b60405180910390f35b3480156102d557600080fd5b506102f060048036038101906102eb9190613ac9565b610a59565b6040516102fd9190613b37565b60405180910390f35b34801561031257600080fd5b5061032d60048036038101906103289190613b7e565b610a9f565b005b34801561033b57600080fd5b5061035660048036038101906103519190613b7e565b610ac8565b005b34801561036457600080fd5b5061037f600480360381019061037a9190613bea565b610cf8565b005b34801561038d57600080fd5b506103a860048036038101906103a39190613c17565b610d1e565b005b3480156103b657600080fd5b506103d160048036038101906103cc9190613c6a565b610d6d565b6040516103df929190613cb9565b60405180910390f35b3480156103f457600080fd5b506103fd610f57565b60405161040a91906139c6565b60405180910390f35b34801561041f57600080fd5b5061043a60048036038101906104359190613c17565b610f6b565b005b34801561044857600080fd5b50610463600480360381019061045e9190613ac9565b610fba565b005b34801561047157600080fd5b5061047a611024565b005b34801561048857600080fd5b506104a3600480360381019061049e9190613ce2565b61104a565b005b3480156104b157600080fd5b506104ba6110a2565b6040516104c791906139c6565b60405180910390f35b3480156104dc57600080fd5b506104e56110b6565b6040516104f29190613a71565b60405180910390f35b34801561050757600080fd5b50610510611145565b60405161051d91906139c6565b60405180910390f35b34801561053257600080fd5b5061053b61115c565b6040516105489190613d0f565b60405180910390f35b34801561055d57600080fd5b50610566611163565b6040516105739190613d0f565b60405180910390f35b34801561058857600080fd5b506105a3600480360381019061059e9190613ac9565b61116a565b6040516105b09190613b37565b60405180910390f35b3480156105c557600080fd5b506105ce6111f0565b6040516105db9190613d0f565b60405180910390f35b3480156105f057600080fd5b5061060b60048036038101906106069190613ce2565b6111f7565b6040516106189190613d0f565b60405180910390f35b34801561062d57600080fd5b506106366112ae565b005b34801561064457600080fd5b5061064d6112c2565b60405161065a9190613d0f565b60405180910390f35b34801561066f57600080fd5b5061068a60048036038101906106859190613e5f565b6112c9565b005b34801561069857600080fd5b506106a16112e5565b005b3480156106af57600080fd5b506106ca60048036038101906106c59190613ac9565b6114bb565b005b3480156106d857600080fd5b506106e16114ce565b6040516106ee9190613b37565b60405180910390f35b34801561070357600080fd5b5061070c6114f8565b6040516107199190613a71565b60405180910390f35b34801561072e57600080fd5b5061074960048036038101906107449190613ce2565b61158a565b6040516107569190613d0f565b60405180910390f35b34801561076b57600080fd5b5061078660048036038101906107819190613ea8565b6115a3565b005b34801561079457600080fd5b5061079d6115cc565b6040516107aa9190613d0f565b60405180910390f35b3480156107bf57600080fd5b506107da60048036038101906107d59190613f89565b6115d3565b005b3480156107e857600080fd5b5061080360048036038101906107fe919061410a565b611635565b60405161081091906139c6565b60405180910390f35b34801561082557600080fd5b5061082e61164d565b60405161083b9190613d0f565b60405180910390f35b34801561085057600080fd5b5061086b60048036038101906108669190613ce2565b611654565b6040516108789190613d0f565b60405180910390f35b34801561088d57600080fd5b506108a860048036038101906108a39190613ac9565b61166d565b6040516108b59190613a71565b60405180910390f35b3480156108ca57600080fd5b506108d361174c565b005b3480156108e157600080fd5b506108fc60048036038101906108f79190614166565b6117c2565b005b6109066117d5565b005b34801561091457600080fd5b5061092f600480360381019061092a9190614193565b611a2d565b60405161093c91906139c6565b60405180910390f35b34801561095157600080fd5b5061095a611ac2565b60405161096791906141e2565b60405180910390f35b61098a60048036038101906109859190613ac9565b611ac9565b005b34801561099857600080fd5b506109b360048036038101906109ae9190613ce2565b611ee4565b005b60006109c082611f67565b9050919050565b606060fb80546109d69061422c565b80601f0160208091040260200160405190810160405280929190818152602001828054610a029061422c565b8015610a4f5780601f10610a2457610100808354040283529160200191610a4f565b820191906000526020600020905b815481529060010190602001808311610a3257829003601f168201915b5050505050905090565b6000610a6482612049565b60ff600083815260200190815260200160002060009054906101000a900473ffffffffffffffffffffffffffffffffffffffff169050919050565b81610aa981612094565b610ab1612191565b610abb83836121e2565b610ac36122f9565b505050565b610ad0612304565b610ad8612191565b61019d60009054906101000a900460ff1615610b29576040517f08c379a0000000000000000000000000000000000000000000000000000000008152600401610b20906142a9565b60405180910390fd5b60006101975411610b6f576040517f08c379a0000000000000000000000000000000000000000000000000000000008152600401610b669061433b565b60405180910390fd5b60018103610c1f576000610b84610191612382565b9050610b908382612390565b6101976000815480929190610ba49061438a565b9190505550610bb46101916123ae565b8273ffffffffffffffffffffffffffffffffffffffff163373ffffffffffffffffffffffffffffffffffffffff167fab8530f87dc9b59234c4623bf917212bb2536d647574c8e7e5da92c2ede0c9f883604051610c119190613d0f565b60405180910390a350610cec565b6001811115610ceb5760005b81811015610ce9576000610c40610191612382565b9050610c4c3382612390565b6101976000815480929190610c609061438a565b9190505550610c706101916123ae565b3373ffffffffffffffffffffffffffffffffffffffff163373ffffffffffffffffffffffffffffffffffffffff167fab8530f87dc9b59234c4623bf917212bb2536d647574c8e7e5da92c2ede0c9f883604051610ccd9190613d0f565b60405180910390a3508080610ce1906143b3565b915050610c2b565b505b5b610cf46122f9565b5050565b610d00612304565b8061019d60006101000a81548160ff02191690831515021790555050565b823373ffffffffffffffffffffffffffffffffffffffff168173ffffffffffffffffffffffffffffffffffffffff1614610d5c57610d5b33612094565b5b610d678484846123c4565b50505050565b6000806000606660008681526020019081526020016000206040518060400160405290816000820160009054906101000a900473ffffffffffffffffffffffffffffffffffffffff1673ffffffffffffffffffffffffffffffffffffffff1673ffffffffffffffffffffffffffffffffffffffff1681526020016000820160149054906101000a90046bffffffffffffffffffffffff166bffffffffffffffffffffffff166bffffffffffffffffffffffff16815250509050600073ffffffffffffffffffffffffffffffffffffffff16816000015173ffffffffffffffffffffffffffffffffffffffff1603610f025760656040518060400160405290816000820160009054906101000a900473ffffffffffffffffffffffffffffffffffffffff1673ffffffffffffffffffffffffffffffffffffffff1673ffffffffffffffffffffffffffffffffffffffff1681526020016000820160149054906101000a90046bffffffffffffffffffffffff166bffffffffffffffffffffffff166bffffffffffffffffffffffff168152505090505b6000610f0c612424565b6bffffffffffffffffffffffff1682602001516bffffffffffffffffffffffff1686610f3891906143fb565b610f42919061446c565b90508160000151819350935050509250929050565b61019d60009054906101000a900460ff1681565b823373ffffffffffffffffffffffffffffffffffffffff168173ffffffffffffffffffffffffffffffffffffffff1614610fa957610fa833612094565b5b610fb484848461242e565b50505050565b610fc2612191565b610fcb8161244e565b3373ffffffffffffffffffffffffffffffffffffffff167fcc16f5dbb4873280815c1ee09dbd06736cffcc184412cf7a71a0fdb75d397ca5826040516110119190613d0f565b60405180910390a26110216122f9565b50565b61102c612304565b600161019860006101000a81548160ff021916908315150217905550565b611052612304565b60004790508173ffffffffffffffffffffffffffffffffffffffff166108fc829081150290604051600060405180830381858888f1935050505015801561109d573d6000803e3d6000fd5b505050565b61019860009054906101000a900460ff1681565b61019c80546110c49061422c565b80601f01602080910402602001604051908101604052809291908181526020018280546110f09061422c565b801561113d5780601f106111125761010080835404028352916020019161113d565b820191906000526020600020905b81548152906001019060200180831161112057829003601f168201915b505050505081565b600060c960009054906101000a900460ff16905090565b6101955481565b6101965481565b6000806111768361259c565b9050600073ffffffffffffffffffffffffffffffffffffffff168173ffffffffffffffffffffffffffffffffffffffff16036111e7576040517f08c379a00000000000000000000000000000000000000000000000000000000081526004016111de906144e9565b60405180910390fd5b80915050919050565b61019b5481565b60008073ffffffffffffffffffffffffffffffffffffffff168273ffffffffffffffffffffffffffffffffffffffff1603611267576040517f08c379a000000000000000000000000000000000000000000000000000000000815260040161125e9061457b565b60405180910390fd5b60fe60008373ffffffffffffffffffffffffffffffffffffffff1673ffffffffffffffffffffffffffffffffffffffff168152602001908152602001600020549050919050565b6112b6612304565b6112c060006125d9565b565b6101975481565b6112d1612304565b8061019c90816112e19190614747565b5050565b60008060019054906101000a900460ff161590508080156113165750600160008054906101000a900460ff1660ff16105b8061134357506113253061269f565b1580156113425750600160008054906101000a900460ff1660ff16145b5b611382576040517f08c379a00000000000000000000000000000000000000000000000000000000081526004016113799061488b565b60405180910390fd5b60016000806101000a81548160ff021916908360ff16021790555080156113bf576001600060016101000a81548160ff0219169083151502179055505b6113c76126c2565b6113cf61271b565b611e466101958190555061028a6101978190555061064061019681905550662386f26fc1000061019981905550600461019a81905550600861019b81905550600061019860006101000a81548160ff0219169083151502179055506114363361028a612774565b60405180608001604052806043815260200161567b6043913961019c908161145e9190614747565b5080156114b85760008060016101000a81548160ff0219169083151502179055507f7f26b83ff96e1f2b6a682f133852f6798a09c465da95921460cefb384740249860016040516114af91906148f3565b60405180910390a15b50565b6114c3612304565b806101998190555050565b6000609760009054906101000a900473ffffffffffffffffffffffffffffffffffffffff16905090565b606060fc80546115079061422c565b80601f01602080910402602001604051908101604052809291908181526020018280546115339061422c565b80156115805780601f1061155557610100808354040283529160200191611580565b820191906000526020600020905b81548152906001019060200180831161156357829003601f168201915b5050505050905090565b6101936020528060005260406000206000915090505481565b816115ad81612094565b6115b5612191565b6115bf8383612909565b6115c76122f9565b505050565b61019a5481565b6115e46115de61291f565b83612927565b611623576040517f08c379a000000000000000000000000000000000000000000000000000000000815260040161161a90614980565b60405180910390fd5b61162f848484846129bc565b50505050565b6000611645836101925484612a18565b905092915050565b6101995481565b6101946020528060005260406000206000915090505481565b606061019860009054906101000a900460ff16156116b85761019c61169183612a2f565b6040516020016116a2929190614a5f565b6040516020818303038152906040529050611747565b61019c80546116c69061422c565b80601f01602080910402602001604051908101604052809291908181526020018280546116f29061422c565b801561173f5780601f106117145761010080835404028352916020019161173f565b820191906000526020600020905b81548152906001019060200180831161172257829003601f168201915b505050505090505b919050565b611754612304565b6000610196541161179a576040517f08c379a000000000000000000000000000000000000000000000000000000000815260040161179190614acf565b60405180910390fd5b6101965461019560008282546117b09190614aef565b92505081905550600061019681905550565b6117ca612304565b806101928190555050565b6117dd612191565b61019d60009054906101000a900460ff161561182e576040517f08c379a0000000000000000000000000000000000000000000000000000000008152600401611825906142a9565b60405180910390fd5b61019b546101995461184091906143fb565b341015611882576040517f08c379a000000000000000000000000000000000000000000000000000000000815260040161187990614b6f565b60405180910390fd5b61019b5461019460003373ffffffffffffffffffffffffffffffffffffffff1673ffffffffffffffffffffffffffffffffffffffff168152602001908152602001600020541015611908576040517f08c379a00000000000000000000000000000000000000000000000000000000081526004016118ff90614c01565b60405180910390fd5b60005b61019b54811015611a22576000611923610191612382565b905061192f3382612390565b61019460003373ffffffffffffffffffffffffffffffffffffffff1673ffffffffffffffffffffffffffffffffffffffff1681526020019081526020016000206000815480929190611980906143b3565b919050555061019660008154809291906119999061438a565b91905055506119a96101916123ae565b3373ffffffffffffffffffffffffffffffffffffffff163373ffffffffffffffffffffffffffffffffffffffff167fab8530f87dc9b59234c4623bf917212bb2536d647574c8e7e5da92c2ede0c9f883604051611a069190613d0f565b60405180910390a3508080611a1a906143b3565b91505061190b565b50611a2b6122f9565b565b600061010060008473ffffffffffffffffffffffffffffffffffffffff1673ffffffffffffffffffffffffffffffffffffffff16815260200190815260200160002060008373ffffffffffffffffffffffffffffffffffffffff1673ffffffffffffffffffffffffffffffffffffffff16815260200190815260200160002060009054906101000a900460ff16905092915050565b6101925481565b611ad1612191565b600033905061019d60009054906101000a900460ff1615611b27576040517f08c379a0000000000000000000000000000000000000000000000000000000008152600401611b1e906142a9565b60405180910390fd5b61019a548261019360008473ffffffffffffffffffffffffffffffffffffffff1673ffffffffffffffffffffffffffffffffffffffff16815260200190815260200160002054611b779190614aef565b1115611bb8576040517f08c379a0000000000000000000000000000000000000000000000000000000008152600401611baf90614c93565b60405180910390fd5b6001821480611bc75750600282145b611c06576040517f08c379a0000000000000000000000000000000000000000000000000000000008152600401611bfd90614cff565b60405180910390fd5b8161019954611c1591906143fb565b341015611c57576040517f08c379a0000000000000000000000000000000000000000000000000000000008152600401611c4e90614b6f565b60405180910390fd5b81610195541015611c9d576040517f08c379a0000000000000000000000000000000000000000000000000000000008152600401611c9490614d91565b60405180910390fd5b60018203611da3576000611cb2610191612382565b9050611cbe8282612390565b61019360008373ffffffffffffffffffffffffffffffffffffffff1673ffffffffffffffffffffffffffffffffffffffff1681526020019081526020016000206000815480929190611d0f906143b3565b91905055506101956000815480929190611d289061438a565b9190505550611d386101916123ae565b8173ffffffffffffffffffffffffffffffffffffffff168273ffffffffffffffffffffffffffffffffffffffff167fab8530f87dc9b59234c4623bf917212bb2536d647574c8e7e5da92c2ede0c9f883604051611d959190613d0f565b60405180910390a350611ed8565b600182118015611db6575061019a548211155b15611ed75760005b61019a54811015611ed5576000611dd6610191612382565b9050611de23382612390565b61019360003373ffffffffffffffffffffffffffffffffffffffff1673ffffffffffffffffffffffffffffffffffffffff1681526020019081526020016000206000815480929190611e33906143b3565b91905055506101956000815480929190611e4c9061438a565b9190505550611e5c6101916123ae565b3373ffffffffffffffffffffffffffffffffffffffff163373ffffffffffffffffffffffffffffffffffffffff167fab8530f87dc9b59234c4623bf917212bb2536d647574c8e7e5da92c2ede0c9f883604051611eb99190613d0f565b60405180910390a3508080611ecd906143b3565b915050611dbe565b505b5b50611ee16122f9565b50565b611eec612304565b600073ffffffffffffffffffffffffffffffffffffffff168173ffffffffffffffffffffffffffffffffffffffff1603611f5b576040517f08c379a0000000000000000000000000000000000000000000000000000000008152600401611f5290614e23565b60405180910390fd5b611f64816125d9565b50565b60007f80ac58cd000000000000000000000000000000000000000000000000000000007bffffffffffffffffffffffffffffffffffffffffffffffffffffffff1916827bffffffffffffffffffffffffffffffffffffffffffffffffffffffff1916148061203257507f5b5e139f000000000000000000000000000000000000000000000000000000007bffffffffffffffffffffffffffffffffffffffffffffffffffffffff1916827bffffffffffffffffffffffffffffffffffffffffffffffffffffffff1916145b80612042575061204182612afd565b5b9050919050565b61205281612b77565b612091576040517f08c379a0000000000000000000000000000000000000000000000000000000008152600401612088906144e9565b60405180910390fd5b50565b60006daaeb6d7670e522a718067333cd4e73ffffffffffffffffffffffffffffffffffffffff163b111561218e576daaeb6d7670e522a718067333cd4e73ffffffffffffffffffffffffffffffffffffffff1663c617113430836040518363ffffffff1660e01b815260040161210b929190614e43565b602060405180830381865afa158015612128573d6000803e3d6000fd5b505050506040513d601f19601f8201168201806040525081019061214c9190614e81565b61218d57806040517fede71dcc0000000000000000000000000000000000000000000000000000000081526004016121849190613b37565b60405180910390fd5b5b50565b600261015f54036121d7576040517f08c379a00000000000000000000000000000000000000000000000000000000081526004016121ce90614efa565b60405180910390fd5b600261015f81905550565b60006121ed8261116a565b90508073ffffffffffffffffffffffffffffffffffffffff168373ffffffffffffffffffffffffffffffffffffffff160361225d576040517f08c379a000000000000000000000000000000000000000000000000000000000815260040161225490614f8c565b60405180910390fd5b8073ffffffffffffffffffffffffffffffffffffffff1661227c61291f565b73ffffffffffffffffffffffffffffffffffffffff1614806122ab57506122aa816122a561291f565b611a2d565b5b6122ea576040517f08c379a00000000000000000000000000000000000000000000000000000000081526004016122e19061501e565b60405180910390fd5b6122f48383612bb8565b505050565b600161015f81905550565b61230c61291f565b73ffffffffffffffffffffffffffffffffffffffff1661232a6114ce565b73ffffffffffffffffffffffffffffffffffffffff1614612380576040517f08c379a00000000000000000000000000000000000000000000000000000000081526004016123779061508a565b60405180910390fd5b565b600081600001549050919050565b6123aa828260405180602001604052806000815250612c71565b5050565b6001816000016000828254019250508190555050565b6123d56123cf61291f565b82612927565b612414576040517f08c379a000000000000000000000000000000000000000000000000000000000815260040161240b90614980565b60405180910390fd5b61241f838383612ccc565b505050565b6000612710905090565b612449838383604051806020016040528060008152506115d3565b505050565b60006124598261116a565b9050612469816000846001612fc5565b6124728261116a565b905060ff600083815260200190815260200160002060006101000a81549073ffffffffffffffffffffffffffffffffffffffff0219169055600160fe60008373ffffffffffffffffffffffffffffffffffffffff1673ffffffffffffffffffffffffffffffffffffffff1681526020019081526020016000206000828254039250508190555060fd600083815260200190815260200160002060006101000a81549073ffffffffffffffffffffffffffffffffffffffff021916905581600073ffffffffffffffffffffffffffffffffffffffff168273ffffffffffffffffffffffffffffffffffffffff167fddf252ad1be2c89b69c2b068fc378daa952ba7f163c4a11628f55a4df523b3ef60405160405180910390a46125988160008460016130eb565b5050565b600060fd600083815260200190815260200160002060009054906101000a900473ffffffffffffffffffffffffffffffffffffffff169050919050565b6000609760009054906101000a900473ffffffffffffffffffffffffffffffffffffffff16905081609760006101000a81548173ffffffffffffffffffffffffffffffffffffffff021916908373ffffffffffffffffffffffffffffffffffffffff1602179055508173ffffffffffffffffffffffffffffffffffffffff168173ffffffffffffffffffffffffffffffffffffffff167f8be0079c531659141344cd1fd0a4f28419497f9722a3daafe3b4186f6b6457e060405160405180910390a35050565b6000808273ffffffffffffffffffffffffffffffffffffffff163b119050919050565b600060019054906101000a900460ff16612711576040517f08c379a00000000000000000000000000000000000000000000000000000000081526004016127089061511c565b60405180910390fd5b6127196130f1565b565b600060019054906101000a900460ff1661276a576040517f08c379a00000000000000000000000000000000000000000000000000000000081526004016127619061511c565b60405180910390fd5b612772613152565b565b61277c612424565b6bffffffffffffffffffffffff16816bffffffffffffffffffffffff1611156127da576040517f08c379a00000000000000000000000000000000000000000000000000000000081526004016127d1906151ae565b60405180910390fd5b600073ffffffffffffffffffffffffffffffffffffffff168273ffffffffffffffffffffffffffffffffffffffff1603612849576040517f08c379a00000000000000000000000000000000000000000000000000000000081526004016128409061521a565b60405180910390fd5b60405180604001604052808373ffffffffffffffffffffffffffffffffffffffff168152602001826bffffffffffffffffffffffff16815250606560008201518160000160006101000a81548173ffffffffffffffffffffffffffffffffffffffff021916908373ffffffffffffffffffffffffffffffffffffffff16021790555060208201518160000160146101000a8154816bffffffffffffffffffffffff02191690836bffffffffffffffffffffffff1602179055509050505050565b61291b61291461291f565b83836131ac565b5050565b600033905090565b6000806129338361116a565b90508073ffffffffffffffffffffffffffffffffffffffff168473ffffffffffffffffffffffffffffffffffffffff16148061297557506129748185611a2d565b5b806129b357508373ffffffffffffffffffffffffffffffffffffffff1661299b84610a59565b73ffffffffffffffffffffffffffffffffffffffff16145b91505092915050565b6129c7848484612ccc565b6129d384848484613319565b612a12576040517f08c379a0000000000000000000000000000000000000000000000000000000008152600401612a09906152ac565b60405180910390fd5b50505050565b600082612a2585846134a0565b1490509392505050565b606060006001612a3e846134f6565b01905060008167ffffffffffffffff811115612a5d57612a5c613d34565b5b6040519080825280601f01601f191660200182016040528015612a8f5781602001600182028036833780820191505090505b509050600082602001820190505b600115612af2578080600190039150507f3031323334353637383961626364656600000000000000000000000000000000600a86061a8153600a8581612ae657612ae561443d565b5b04945060008503612a9d575b819350505050919050565b60007f2a55205a000000000000000000000000000000000000000000000000000000007bffffffffffffffffffffffffffffffffffffffffffffffffffffffff1916827bffffffffffffffffffffffffffffffffffffffffffffffffffffffff19161480612b705750612b6f82613649565b5b9050919050565b60008073ffffffffffffffffffffffffffffffffffffffff16612b998361259c565b73ffffffffffffffffffffffffffffffffffffffff1614159050919050565b8160ff600083815260200190815260200160002060006101000a81548173ffffffffffffffffffffffffffffffffffffffff021916908373ffffffffffffffffffffffffffffffffffffffff160217905550808273ffffffffffffffffffffffffffffffffffffffff16612c2b8361116a565b73ffffffffffffffffffffffffffffffffffffffff167f8c5be1e5ebec7d5bd14f71427d1e84f3dd0314c0f7b2291e5b200ac8c7c3b92560405160405180910390a45050565b612c7b83836136b3565b612c886000848484613319565b612cc7576040517f08c379a0000000000000000000000000000000000000000000000000000000008152600401612cbe906152ac565b60405180910390fd5b505050565b8273ffffffffffffffffffffffffffffffffffffffff16612cec8261116a565b73ffffffffffffffffffffffffffffffffffffffff1614612d42576040517f08c379a0000000000000000000000000000000000000000000000000000000008152600401612d399061533e565b60405180910390fd5b600073ffffffffffffffffffffffffffffffffffffffff168273ffffffffffffffffffffffffffffffffffffffff1603612db1576040517f08c379a0000000000000000000000000000000000000000000000000000000008152600401612da8906153d0565b60405180910390fd5b612dbe8383836001612fc5565b8273ffffffffffffffffffffffffffffffffffffffff16612dde8261116a565b73ffffffffffffffffffffffffffffffffffffffff1614612e34576040517f08c379a0000000000000000000000000000000000000000000000000000000008152600401612e2b9061533e565b60405180910390fd5b60ff600082815260200190815260200160002060006101000a81549073ffffffffffffffffffffffffffffffffffffffff0219169055600160fe60008573ffffffffffffffffffffffffffffffffffffffff1673ffffffffffffffffffffffffffffffffffffffff16815260200190815260200160002060008282540392505081905550600160fe60008473ffffffffffffffffffffffffffffffffffffffff1673ffffffffffffffffffffffffffffffffffffffff168152602001908152602001600020600082825401925050819055508160fd600083815260200190815260200160002060006101000a81548173ffffffffffffffffffffffffffffffffffffffff021916908373ffffffffffffffffffffffffffffffffffffffff160217905550808273ffffffffffffffffffffffffffffffffffffffff168473ffffffffffffffffffffffffffffffffffffffff167fddf252ad1be2c89b69c2b068fc378daa952ba7f163c4a11628f55a4df523b3ef60405160405180910390a4612fc083838360016130eb565b505050565b60018111156130e557600073ffffffffffffffffffffffffffffffffffffffff168473ffffffffffffffffffffffffffffffffffffffff1614613059578060fe60008673ffffffffffffffffffffffffffffffffffffffff1673ffffffffffffffffffffffffffffffffffffffff168152602001908152602001600020600082825461305191906153f0565b925050819055505b600073ffffffffffffffffffffffffffffffffffffffff168373ffffffffffffffffffffffffffffffffffffffff16146130e4578060fe60008573ffffffffffffffffffffffffffffffffffffffff1673ffffffffffffffffffffffffffffffffffffffff16815260200190815260200160002060008282546130dc9190614aef565b925050819055505b5b50505050565b50505050565b600060019054906101000a900460ff16613140576040517f08c379a00000000000000000000000000000000000000000000000000000000081526004016131379061511c565b60405180910390fd5b61315061314b61291f565b6125d9565b565b600060019054906101000a900460ff166131a1576040517f08c379a00000000000000000000000000000000000000000000000000000000081526004016131989061511c565b60405180910390fd5b600161015f81905550565b8173ffffffffffffffffffffffffffffffffffffffff168373ffffffffffffffffffffffffffffffffffffffff160361321a576040517f08c379a000000000000000000000000000000000000000000000000000000000815260040161321190615470565b60405180910390fd5b8061010060008573ffffffffffffffffffffffffffffffffffffffff1673ffffffffffffffffffffffffffffffffffffffff16815260200190815260200160002060008473ffffffffffffffffffffffffffffffffffffffff1673ffffffffffffffffffffffffffffffffffffffff16815260200190815260200160002060006101000a81548160ff0219169083151502179055508173ffffffffffffffffffffffffffffffffffffffff168373ffffffffffffffffffffffffffffffffffffffff167f17307eab39ab6107e8899845ad3d59bd9653f200f220920489ca2b5937696c318360405161330c91906139c6565b60405180910390a3505050565b600061333a8473ffffffffffffffffffffffffffffffffffffffff1661269f565b15613493578373ffffffffffffffffffffffffffffffffffffffff1663150b7a0261336361291f565b8786866040518563ffffffff1660e01b815260040161338594939291906154e5565b6020604051808303816000875af19250505080156133c157506040513d601f19601f820116820180604052508101906133be9190615546565b60015b613443573d80600081146133f1576040519150601f19603f3d011682016040523d82523d6000602084013e6133f6565b606091505b50600081510361343b576040517f08c379a0000000000000000000000000000000000000000000000000000000008152600401613432906152ac565b60405180910390fd5b805181602001fd5b63150b7a0260e01b7bffffffffffffffffffffffffffffffffffffffffffffffffffffffff1916817bffffffffffffffffffffffffffffffffffffffffffffffffffffffff191614915050613498565b600190505b949350505050565b60008082905060005b84518110156134eb576134d6828683815181106134c9576134c8615573565b5b60200260200101516138d0565b915080806134e3906143b3565b9150506134a9565b508091505092915050565b600080600090507a184f03e93ff9f4daa797ed6e38ed64bf6a1f0100000000000000008310613554577a184f03e93ff9f4daa797ed6e38ed64bf6a1f010000000000000000838161354a5761354961443d565b5b0492506040810190505b6d04ee2d6d415b85acef81000000008310613591576d04ee2d6d415b85acef810000000083816135875761358661443d565b5b0492506020810190505b662386f26fc1000083106135c057662386f26fc1000083816135b6576135b561443d565b5b0492506010810190505b6305f5e10083106135e9576305f5e10083816135df576135de61443d565b5b0492506008810190505b612710831061360e5761271083816136045761360361443d565b5b0492506004810190505b6064831061363157606483816136275761362661443d565b5b0492506002810190505b600a8310613640576001810190505b80915050919050565b60007f01ffc9a7000000000000000000000000000000000000000000000000000000007bffffffffffffffffffffffffffffffffffffffffffffffffffffffff1916827bffffffffffffffffffffffffffffffffffffffffffffffffffffffff1916149050919050565b600073ffffffffffffffffffffffffffffffffffffffff168273ffffffffffffffffffffffffffffffffffffffff1603613722576040517f08c379a0000000000000000000000000000000000000000000000000000000008152600401613719906155ee565b60405180910390fd5b61372b81612b77565b1561376b576040517f08c379a00000000000000000000000000000000000000000000000000000000081526004016137629061565a565b60405180910390fd5b613779600083836001612fc5565b61378281612b77565b156137c2576040517f08c379a00000000000000000000000000000000000000000000000000000000081526004016137b99061565a565b60405180910390fd5b600160fe60008473ffffffffffffffffffffffffffffffffffffffff1673ffffffffffffffffffffffffffffffffffffffff168152602001908152602001600020600082825401925050819055508160fd600083815260200190815260200160002060006101000a81548173ffffffffffffffffffffffffffffffffffffffff021916908373ffffffffffffffffffffffffffffffffffffffff160217905550808273ffffffffffffffffffffffffffffffffffffffff16600073ffffffffffffffffffffffffffffffffffffffff167fddf252ad1be2c89b69c2b068fc378daa952ba7f163c4a11628f55a4df523b3ef60405160405180910390a46138cc6000838360016130eb565b5050565b60008183106138e8576138e382846138fb565b6138f3565b6138f283836138fb565b5b905092915050565b600082600052816020526040600020905092915050565b6000604051905090565b600080fd5b600080fd5b60007fffffffff0000000000000000000000000000000000000000000000000000000082169050919050565b61395b81613926565b811461396657600080fd5b50565b60008135905061397881613952565b92915050565b6000602082840312156139945761399361391c565b5b60006139a284828501613969565b91505092915050565b60008115159050919050565b6139c0816139ab565b82525050565b60006020820190506139db60008301846139b7565b92915050565b600081519050919050565b600082825260208201905092915050565b60005b83811015613a1b578082015181840152602081019050613a00565b60008484015250505050565b6000601f19601f8301169050919050565b6000613a43826139e1565b613a4d81856139ec565b9350613a5d8185602086016139fd565b613a6681613a27565b840191505092915050565b60006020820190508181036000830152613a8b8184613a38565b905092915050565b6000819050919050565b613aa681613a93565b8114613ab157600080fd5b50565b600081359050613ac381613a9d565b92915050565b600060208284031215613adf57613ade61391c565b5b6000613aed84828501613ab4565b91505092915050565b600073ffffffffffffffffffffffffffffffffffffffff82169050919050565b6000613b2182613af6565b9050919050565b613b3181613b16565b82525050565b6000602082019050613b4c6000830184613b28565b92915050565b613b5b81613b16565b8114613b6657600080fd5b50565b600081359050613b7881613b52565b92915050565b60008060408385031215613b9557613b9461391c565b5b6000613ba385828601613b69565b9250506020613bb485828601613ab4565b9150509250929050565b613bc7816139ab565b8114613bd257600080fd5b50565b600081359050613be481613bbe565b92915050565b600060208284031215613c0057613bff61391c565b5b6000613c0e84828501613bd5565b91505092915050565b600080600060608486031215613c3057613c2f61391c565b5b6000613c3e86828701613b69565b9350506020613c4f86828701613b69565b9250506040613c6086828701613ab4565b9150509250925092565b60008060408385031215613c8157613c8061391c565b5b6000613c8f85828601613ab4565b9250506020613ca085828601613ab4565b9150509250929050565b613cb381613a93565b82525050565b6000604082019050613cce6000830185613b28565b613cdb6020830184613caa565b9392505050565b600060208284031215613cf857613cf761391c565b5b6000613d0684828501613b69565b91505092915050565b6000602082019050613d246000830184613caa565b92915050565b600080fd5b600080fd5b7f4e487b7100000000000000000000000000000000000000000000000000000000600052604160045260246000fd5b613d6c82613a27565b810181811067ffffffffffffffff82111715613d8b57613d8a613d34565b5b80604052505050565b6000613d9e613912565b9050613daa8282613d63565b919050565b600067ffffffffffffffff821115613dca57613dc9613d34565b5b613dd382613a27565b9050602081019050919050565b82818337600083830152505050565b6000613e02613dfd84613daf565b613d94565b905082815260208101848484011115613e1e57613e1d613d2f565b5b613e29848285613de0565b509392505050565b600082601f830112613e4657613e45613d2a565b5b8135613e56848260208601613def565b91505092915050565b600060208284031215613e7557613e7461391c565b5b600082013567ffffffffffffffff811115613e9357613e92613921565b5b613e9f84828501613e31565b91505092915050565b60008060408385031215613ebf57613ebe61391c565b5b6000613ecd85828601613b69565b9250506020613ede85828601613bd5565b9150509250929050565b600067ffffffffffffffff821115613f0357613f02613d34565b5b613f0c82613a27565b9050602081019050919050565b6000613f2c613f2784613ee8565b613d94565b905082815260208101848484011115613f4857613f47613d2f565b5b613f53848285613de0565b509392505050565b600082601f830112613f7057613f6f613d2a565b5b8135613f80848260208601613f19565b91505092915050565b60008060008060808587031215613fa357613fa261391c565b5b6000613fb187828801613b69565b9450506020613fc287828801613b69565b9350506040613fd387828801613ab4565b925050606085013567ffffffffffffffff811115613ff457613ff3613921565b5b61400087828801613f5b565b91505092959194509250565b600067ffffffffffffffff82111561402757614026613d34565b5b602082029050602081019050919050565b600080fd5b6000819050919050565b6140508161403d565b811461405b57600080fd5b50565b60008135905061406d81614047565b92915050565b60006140866140818461400c565b613d94565b905080838252602082019050602084028301858111156140a9576140a8614038565b5b835b818110156140d257806140be888261405e565b8452602084019350506020810190506140ab565b5050509392505050565b600082601f8301126140f1576140f0613d2a565b5b8135614101848260208601614073565b91505092915050565b600080604083850312156141215761412061391c565b5b600083013567ffffffffffffffff81111561413f5761413e613921565b5b61414b858286016140dc565b925050602061415c8582860161405e565b9150509250929050565b60006020828403121561417c5761417b61391c565b5b600061418a8482850161405e565b91505092915050565b600080604083850312156141aa576141a961391c565b5b60006141b885828601613b69565b92505060206141c985828601613b69565b9150509250929050565b6141dc8161403d565b82525050565b60006020820190506141f760008301846141d3565b92915050565b7f4e487b7100000000000000000000000000000000000000000000000000000000600052602260045260246000fd5b6000600282049050600182168061424457607f821691505b602082108103614257576142566141fd565b5b50919050565b7f4d696e742053746f707065640000000000000000000000000000000000000000600082015250565b6000614293600c836139ec565b915061429e8261425d565b602082019050919050565b600060208201905081810360008301526142c281614286565b9050919050565b7f546865207769746868656c6420737570706c79206f66204e465473206861732060008201527f6265656e206578686175737465642e0000000000000000000000000000000000602082015250565b6000614325602f836139ec565b9150614330826142c9565b604082019050919050565b6000602082019050818103600083015261435481614318565b9050919050565b7f4e487b7100000000000000000000000000000000000000000000000000000000600052601160045260246000fd5b600061439582613a93565b9150600082036143a8576143a761435b565b5b600182039050919050565b60006143be82613a93565b91507fffffffffffffffffffffffffffffffffffffffffffffffffffffffffffffffff82036143f0576143ef61435b565b5b600182019050919050565b600061440682613a93565b915061441183613a93565b925082820261441f81613a93565b915082820484148315176144365761443561435b565b5b5092915050565b7f4e487b7100000000000000000000000000000000000000000000000000000000600052601260045260246000fd5b600061447782613a93565b915061448283613a93565b9250826144925761449161443d565b5b828204905092915050565b7f4552433732313a20696e76616c696420746f6b656e2049440000000000000000600082015250565b60006144d36018836139ec565b91506144de8261449d565b602082019050919050565b60006020820190508181036000830152614502816144c6565b9050919050565b7f4552433732313a2061646472657373207a65726f206973206e6f74206120766160008201527f6c6964206f776e65720000000000000000000000000000000000000000000000602082015250565b60006145656029836139ec565b915061457082614509565b604082019050919050565b6000602082019050818103600083015261459481614558565b9050919050565b60008190508160005260206000209050919050565b60006020601f8301049050919050565b600082821b905092915050565b6000600883026145fd7fffffffffffffffffffffffffffffffffffffffffffffffffffffffffffffffff826145c0565b61460786836145c0565b95508019841693508086168417925050509392505050565b6000819050919050565b600061464461463f61463a84613a93565b61461f565b613a93565b9050919050565b6000819050919050565b61465e83614629565b61467261466a8261464b565b8484546145cd565b825550505050565b600090565b61468761467a565b614692818484614655565b505050565b5b818110156146b6576146ab60008261467f565b600181019050614698565b5050565b601f8211156146fb576146cc8161459b565b6146d5846145b0565b810160208510156146e4578190505b6146f86146f0856145b0565b830182614697565b50505b505050565b600082821c905092915050565b600061471e60001984600802614700565b1980831691505092915050565b6000614737838361470d565b9150826002028217905092915050565b614750826139e1565b67ffffffffffffffff81111561476957614768613d34565b5b614773825461422c565b61477e8282856146ba565b600060209050601f8311600181146147b1576000841561479f578287015190505b6147a9858261472b565b865550614811565b601f1984166147bf8661459b565b60005b828110156147e7578489015182556001820191506020850194506020810190506147c2565b868310156148045784890151614800601f89168261470d565b8355505b6001600288020188555050505b505050505050565b7f496e697469616c697a61626c653a20636f6e747261637420697320616c72656160008201527f647920696e697469616c697a6564000000000000000000000000000000000000602082015250565b6000614875602e836139ec565b915061488082614819565b604082019050919050565b600060208201905081810360008301526148a481614868565b9050919050565b6000819050919050565b600060ff82169050919050565b60006148dd6148d86148d3846148ab565b61461f565b6148b5565b9050919050565b6148ed816148c2565b82525050565b600060208201905061490860008301846148e4565b92915050565b7f4552433732313a2063616c6c6572206973206e6f7420746f6b656e206f776e6560008201527f72206f7220617070726f76656400000000000000000000000000000000000000602082015250565b600061496a602d836139ec565b91506149758261490e565b604082019050919050565b600060208201905081810360008301526149998161495d565b9050919050565b600081905092915050565b600081546149b88161422c565b6149c281866149a0565b945060018216600081146149dd57600181146149f257614a25565b60ff1983168652811515820286019350614a25565b6149fb8561459b565b60005b83811015614a1d578154818901526001820191506020810190506149fe565b838801955050505b50505092915050565b6000614a39826139e1565b614a4381856149a0565b9350614a538185602086016139fd565b80840191505092915050565b6000614a6b82856149ab565b9150614a778284614a2e565b91508190509392505050565b7f4e6f7468696e6720746f20616464000000000000000000000000000000000000600082015250565b6000614ab9600e836139ec565b9150614ac482614a83565b602082019050919050565b60006020820190508181036000830152614ae881614aac565b9050919050565b6000614afa82613a93565b9150614b0583613a93565b9250828201905080821115614b1d57614b1c61435b565b5b92915050565b7f496e73756666696369656e742066756e64730000000000000000000000000000600082015250565b6000614b596012836139ec565b9150614b6482614b23565b602082019050919050565b60006020820190508181036000830152614b8881614b4c565b9050919050565b7f416c7265616479206d696e7465642038204e4654732c2073757065725375707060008201527f6c79000000000000000000000000000000000000000000000000000000000000602082015250565b6000614beb6022836139ec565b9150614bf682614b8f565b604082019050919050565b60006020820190508181036000830152614c1a81614bde565b9050919050565b7f4d6178206d696e74206c696d6974204e465473207065722077616c6c6574207260008201527f6561636865640000000000000000000000000000000000000000000000000000602082015250565b6000614c7d6026836139ec565b9150614c8882614c21565b604082019050919050565b60006020820190508181036000830152614cac81614c70565b9050919050565b7f496e636f7272656374206d696e7420636f756e74000000000000000000000000600082015250565b6000614ce96014836139ec565b9150614cf482614cb3565b602082019050919050565b60006020820190508181036000830152614d1881614cdc565b9050919050565b7f546865207075626c696320737570706c79206f66204e4654732068617320626560008201527f656e206578686175737465642e00000000000000000000000000000000000000602082015250565b6000614d7b602d836139ec565b9150614d8682614d1f565b604082019050919050565b60006020820190508181036000830152614daa81614d6e565b9050919050565b7f4f776e61626c653a206e6577206f776e657220697320746865207a65726f206160008201527f6464726573730000000000000000000000000000000000000000000000000000602082015250565b6000614e0d6026836139ec565b9150614e1882614db1565b604082019050919050565b60006020820190508181036000830152614e3c81614e00565b9050919050565b6000604082019050614e586000830185613b28565b614e656020830184613b28565b9392505050565b600081519050614e7b81613bbe565b92915050565b600060208284031215614e9757614e9661391c565b5b6000614ea584828501614e6c565b91505092915050565b7f5265656e7472616e637947756172643a207265656e7472616e742063616c6c00600082015250565b6000614ee4601f836139ec565b9150614eef82614eae565b602082019050919050565b60006020820190508181036000830152614f1381614ed7565b9050919050565b7f4552433732313a20617070726f76616c20746f2063757272656e74206f776e6560008201527f7200000000000000000000000000000000000000000000000000000000000000602082015250565b6000614f766021836139ec565b9150614f8182614f1a565b604082019050919050565b60006020820190508181036000830152614fa581614f69565b9050919050565b7f4552433732313a20617070726f76652063616c6c6572206973206e6f7420746f60008201527f6b656e206f776e6572206f7220617070726f76656420666f7220616c6c000000602082015250565b6000615008603d836139ec565b915061501382614fac565b604082019050919050565b6000602082019050818103600083015261503781614ffb565b9050919050565b7f4f776e61626c653a2063616c6c6572206973206e6f7420746865206f776e6572600082015250565b60006150746020836139ec565b915061507f8261503e565b602082019050919050565b600060208201905081810360008301526150a381615067565b9050919050565b7f496e697469616c697a61626c653a20636f6e7472616374206973206e6f74206960008201527f6e697469616c697a696e67000000000000000000000000000000000000000000602082015250565b6000615106602b836139ec565b9150615111826150aa565b604082019050919050565b60006020820190508181036000830152615135816150f9565b9050919050565b7f455243323938313a20726f79616c7479206665652077696c6c2065786365656460008201527f2073616c65507269636500000000000000000000000000000000000000000000602082015250565b6000615198602a836139ec565b91506151a38261513c565b604082019050919050565b600060208201905081810360008301526151c78161518b565b9050919050565b7f455243323938313a20696e76616c696420726563656976657200000000000000600082015250565b60006152046019836139ec565b915061520f826151ce565b602082019050919050565b60006020820190508181036000830152615233816151f7565b9050919050565b7f4552433732313a207472616e7366657220746f206e6f6e20455243373231526560008201527f63656976657220696d706c656d656e7465720000000000000000000000000000602082015250565b60006152966032836139ec565b91506152a18261523a565b604082019050919050565b600060208201905081810360008301526152c581615289565b9050919050565b7f4552433732313a207472616e736665722066726f6d20696e636f72726563742060008201527f6f776e6572000000000000000000000000000000000000000000000000000000602082015250565b60006153286025836139ec565b9150615333826152cc565b604082019050919050565b600060208201905081810360008301526153578161531b565b9050919050565b7f4552433732313a207472616e7366657220746f20746865207a65726f2061646460008201527f7265737300000000000000000000000000000000000000000000000000000000602082015250565b60006153ba6024836139ec565b91506153c58261535e565b604082019050919050565b600060208201905081810360008301526153e9816153ad565b9050919050565b60006153fb82613a93565b915061540683613a93565b925082820390508181111561541e5761541d61435b565b5b92915050565b7f4552433732313a20617070726f766520746f2063616c6c657200000000000000600082015250565b600061545a6019836139ec565b915061546582615424565b602082019050919050565b600060208201905081810360008301526154898161544d565b9050919050565b600081519050919050565b600082825260208201905092915050565b60006154b782615490565b6154c1818561549b565b93506154d18185602086016139fd565b6154da81613a27565b840191505092915050565b60006080820190506154fa6000830187613b28565b6155076020830186613b28565b6155146040830185613caa565b818103606083015261552681846154ac565b905095945050505050565b60008151905061554081613952565b92915050565b60006020828403121561555c5761555b61391c565b5b600061556a84828501615531565b91505092915050565b7f4e487b7100000000000000000000000000000000000000000000000000000000600052603260045260246000fd5b7f4552433732313a206d696e7420746f20746865207a65726f2061646472657373600082015250565b60006155d86020836139ec565b91506155e3826155a2565b602082019050919050565b60006020820190508181036000830152615607816155cb565b9050919050565b7f4552433732313a20746f6b656e20616c7265616479206d696e74656400000000600082015250565b6000615644601c836139ec565b915061564f8261560e565b602082019050919050565b6000602082019050818103600083015261567381615637565b905091905056fe68747470733a2f2f697066732e696f2f697066732f516d50487439725a48694e46344b36737579644271376d66624757736f4d634d6b356634324550714b545a376a7aa2646970667358221220fb3a9f3b8f93bc9b456da682b9da3fb4ee50911d9714e56b5a0fa86accd06b2d64736f6c63430008110033",
  "immutableReferences": {},
  "source": "// SPDX-License-Identifier: MIT\r\npragma solidity >=0.4.22 <0.9.0;\r\n\r\nimport \"@openzeppelin/contracts-upgradeable/proxy/utils/Initializable.sol\";\r\nimport \"@openzeppelin/contracts-upgradeable/access/OwnableUpgradeable.sol\";\r\nimport \"@openzeppelin/contracts-upgradeable/token/ERC721/IERC721Upgradeable.sol\";\r\nimport \"@openzeppelin/contracts-upgradeable/security/PausableUpgradeable.sol\";\r\nimport \"@openzeppelin/contracts-upgradeable/token/ERC721/extensions/ERC721BurnableUpgradeable.sol\";\r\nimport \"@openzeppelin/contracts-upgradeable/security/ReentrancyGuardUpgradeable.sol\";\r\nimport \"@openzeppelin/contracts-upgradeable/utils/CountersUpgradeable.sol\";\r\nimport \"@openzeppelin/contracts-upgradeable/token/common/ERC2981Upgradeable.sol\";\r\nimport \"@openzeppelin/contracts-upgradeable/utils/cryptography/MerkleProofUpgradeable.sol\"; //\r\nimport \"operator-filter-registry/src/upgradeable/DefaultOperatorFiltererUpgradeable.sol\";\r\nimport \"@openzeppelin/contracts-upgradeable/utils/StringsUpgradeable.sol\";\r\n\r\ncontract ContendersEGNFT is\r\n    Initializable,\r\n    ERC2981Upgradeable,\r\n    OwnableUpgradeable,\r\n    IERC721Upgradeable,\r\n    PausableUpgradeable,\r\n    ERC721BurnableUpgradeable,\r\n    ReentrancyGuardUpgradeable,\r\n    OperatorFiltererUpgradeable\r\n{\r\n    using CountersUpgradeable for CountersUpgradeable.Counter;\r\n    using StringsUpgradeable for uint256;\r\n\r\n    CountersUpgradeable.Counter private _tokenIdCounter;\r\n\r\n    bytes32 public root;\r\n\r\n    mapping(address => uint256) public mintedNFTSPerPublic; // tracks the number of NFTs minted by each whitelisted wallet\r\n    mapping(address => uint256) public mintedNFTSPerSuper;\r\n    uint256 public publicSupply; // the initial number of NFTs available for public minting\r\n    uint256 public superSupply; // super whitelist\r\n    uint256 public withheldSupply; // the initial number of NFTs withheld for the team\r\n\r\n    bool public isRevealed; // flag for revealing\r\n\r\n    // Variables for minting NFTs\r\n    uint256 public mintCost; // the cost to mint a single NFT\r\n    uint256 public maxNFTSPerPublic; // the maximum number of NFTs that can be minted by a single wallet\r\n    uint256 public maxNFTSPerSuper;\r\n\r\n    string public baseMetadataURI;\r\n    bool public isStopped;\r\n\r\n    // Events\r\n    event Mint(address indexed _minter, address indexed _owner, uint256 _id); // emitted when a wallet mints an NFT\r\n    event Burn(address indexed _from, uint256 _id); // emitted when an NFT is burned\r\n\r\n    function initialize() public initializer {\r\n        __Ownable_init();\r\n        __ReentrancyGuard_init();\r\n        publicSupply = 7750;\r\n        withheldSupply = 650;\r\n        superSupply = 1600;\r\n        mintCost = 0.01 ether;\r\n        maxNFTSPerPublic = 4;\r\n        maxNFTSPerSuper = 8;\r\n        isRevealed = false;\r\n        _setDefaultRoyalty(msg.sender, 650); //royalty of 6.5%\r\n        baseMetadataURI = \"https://ipfs.io/ipfs/QmPHt9rZHiNF4K6suydBq7mfbGWsoMcMk5f42EPqKTZ7jz\";\r\n    }\r\n\r\n    function supportsInterface(\r\n        bytes4 interfaceId //erc2981\r\n    )\r\n        public\r\n        view\r\n        virtual\r\n        override(ERC721Upgradeable, ERC2981Upgradeable, IERC165Upgradeable)\r\n        returns (bool)\r\n    {\r\n        return super.supportsInterface(interfaceId);\r\n    }\r\n\r\n    function isValid(bytes32[] memory _proof, bytes32 _leaf)\r\n        public\r\n        view\r\n        returns (bool)\r\n    {\r\n        return MerkleProofUpgradeable.verify(_proof, root, _leaf);\r\n    }\r\n\r\n    function setRoot(bytes32 _root) public onlyOwner {\r\n        root = _root;\r\n    }\r\n\r\n    function mintPublic(uint256 _numberOfNFTs) public payable nonReentrant {\r\n        address _buyer = msg.sender;\r\n        require(!isStopped, \"Mint Stopped\");\r\n        require(\r\n            mintedNFTSPerPublic[_buyer] + _numberOfNFTs <= maxNFTSPerPublic,\r\n            \"Max mint limit NFTs per wallet reached\"\r\n        );\r\n        require(\r\n            _numberOfNFTs == 1 || _numberOfNFTs == 2,\r\n            \"Incorrect mint count\"\r\n        );\r\n        require(msg.value >= mintCost * _numberOfNFTs, \"Insufficient funds\");\r\n        require(\r\n            publicSupply >= _numberOfNFTs,\r\n            \"The public supply of NFTs has been exhausted.\"\r\n        );\r\n\r\n        //check number of nfts to mint\r\n        if (_numberOfNFTs == 1) {\r\n            uint256 tokenId = _tokenIdCounter.current();\r\n            _safeMint(_buyer, tokenId);\r\n            mintedNFTSPerPublic[_buyer]++;\r\n            publicSupply--;\r\n            _tokenIdCounter.increment();\r\n            emit Mint(_buyer, _buyer, tokenId);\r\n        } else if (_numberOfNFTs > 1 && _numberOfNFTs <= maxNFTSPerPublic) {\r\n            for (uint256 i = 0; i < maxNFTSPerPublic; i++) {\r\n                uint256 tokenId = _tokenIdCounter.current();\r\n                _safeMint(msg.sender, tokenId);\r\n                mintedNFTSPerPublic[msg.sender]++;\r\n                publicSupply--;\r\n                _tokenIdCounter.increment();\r\n                emit Mint(msg.sender, msg.sender, tokenId);\r\n            }\r\n        }\r\n    }\r\n\r\n    function mintSuper() public payable nonReentrant {\r\n        require(!isStopped, \"Mint Stopped\");\r\n        require(msg.value >= mintCost * maxNFTSPerSuper, \"Insufficient funds\");\r\n        require(\r\n            mintedNFTSPerSuper[msg.sender] >= maxNFTSPerSuper,\r\n            \"Already minted 8 NFTs, superSupply\"\r\n        );\r\n\r\n        for (uint256 i = 0; i < maxNFTSPerSuper; i++) {\r\n            uint256 tokenId = _tokenIdCounter.current();\r\n            _safeMint(msg.sender, tokenId);\r\n            mintedNFTSPerSuper[msg.sender]++;\r\n            superSupply--;\r\n            _tokenIdCounter.increment();\r\n            emit Mint(msg.sender, msg.sender, tokenId);\r\n        }\r\n    }\r\n\r\n    function mintWithheld(address _to, uint256 _numberOfNFTs)\r\n        public\r\n        onlyOwner\r\n        nonReentrant\r\n    {\r\n        require(!isStopped, \"Mint Stopped\");\r\n        require(\r\n            withheldSupply > 0,\r\n            \"The withheld supply of NFTs has been exhausted.\"\r\n        );\r\n        if (_numberOfNFTs == 1) {\r\n            uint256 tokenId = _tokenIdCounter.current();\r\n            _safeMint(_to, tokenId);\r\n            withheldSupply--;\r\n            _tokenIdCounter.increment();\r\n            emit Mint(msg.sender, _to, tokenId);\r\n        } else if (_numberOfNFTs > 1) {\r\n            for (uint256 i = 0; i < _numberOfNFTs; i++) {\r\n                uint256 tokenId = _tokenIdCounter.current();\r\n                _safeMint(msg.sender, tokenId);\r\n                withheldSupply--;\r\n                _tokenIdCounter.increment();\r\n                emit Mint(msg.sender, msg.sender, tokenId);\r\n            }\r\n        }\r\n    }\r\n\r\n    function burn(uint256 _id) public override nonReentrant {\r\n        _burn(_id);\r\n        emit Burn(msg.sender, _id);\r\n    }\r\n\r\n    function revealAll() public onlyOwner {\r\n        isRevealed = true;\r\n    }\r\n\r\n    function tokenURI(uint256 _id) public view override returns (string memory) {\r\n        if (isRevealed)\r\n            return string(abi.encodePacked(baseMetadataURI, _id.toString()));\r\n        return baseMetadataURI;\r\n    }\r\n\r\n\r\n    //operator-filterer-registry part\r\n\r\n    function setApprovalForAll(address operator, bool approved)\r\n        public\r\n        override(ERC721Upgradeable, IERC721Upgradeable)\r\n        onlyAllowedOperatorApproval(operator)\r\n        nonReentrant\r\n    {\r\n        super.setApprovalForAll(operator, approved);\r\n    }\r\n\r\n    function approve(address operator, uint256 tokenId)\r\n        public\r\n        override(ERC721Upgradeable, IERC721Upgradeable)\r\n        onlyAllowedOperatorApproval(operator)\r\n        nonReentrant\r\n    {\r\n        super.approve(operator, tokenId);\r\n    }\r\n\r\n    function transferFrom(\r\n        address from,\r\n        address to,\r\n        uint256 tokenId\r\n    )\r\n        public\r\n        override(ERC721Upgradeable, IERC721Upgradeable)\r\n        onlyAllowedOperator(from)\r\n    {\r\n        super.transferFrom(from, to, tokenId);\r\n    }\r\n\r\n    function safeTransferFrom(\r\n        address from,\r\n        address to,\r\n        uint256 tokenId\r\n    )\r\n        public\r\n        override(ERC721Upgradeable, IERC721Upgradeable)\r\n        onlyAllowedOperator(from)\r\n    {\r\n        super.safeTransferFrom(from, to, tokenId);\r\n    }\r\n    //operator-filterer-registry part-end//\r\n\r\n    function withdraw(address _to) external onlyOwner {\r\n        uint256 balance = address(this).balance;\r\n        payable(_to).transfer(balance);\r\n    }\r\n\r\n    function setMintCost(uint256 _cost) public onlyOwner {\r\n        mintCost = _cost;\r\n    }\r\n\r\n    function setBaseMetadataURI(string memory _newBaseMetadataUri)\r\n        public\r\n        onlyOwner\r\n    {\r\n        baseMetadataURI = _newBaseMetadataUri;\r\n    }\r\n\r\n    function setAction(bool _action)   ///activate or deactivate minting(true --> stopped)\r\n        public\r\n        onlyOwner\r\n    {\r\n        isStopped = _action;\r\n    }\r\n\r\n    //superSupply decreased to zero, publicSupply increased for not minted super\r\n\r\n    function addToPublicSupply() public onlyOwner {\r\n\r\n        require(superSupply > 0, \"Nothing to add\");\r\n\r\n        publicSupply += superSupply;\r\n        superSupply = 0; \r\n    }\r\n\r\n\r\n}\r\n",
  "sourcePath": "C:\\Users\\Ikiag\\Desktop\\workspace\\Work\\Client\\eg_contenders_sc\\contracts\\ContendersEGNFT.sol",
  "compiler": {
    "name": "solc",
    "version": "0.8.17+commit.8df45f5f.Emscripten.clang"
  },
  "schemaVersion": "3.4.12",
  "updatedAt": "2023-02-21T10:58:35.854Z",
  "devdoc": {
    "kind": "dev",
    "methods": {
      "balanceOf(address)": {
        "details": "See {IERC721-balanceOf}."
      },
      "getApproved(uint256)": {
        "details": "See {IERC721-getApproved}."
      },
      "isApprovedForAll(address,address)": {
        "details": "See {IERC721-isApprovedForAll}."
      },
      "name()": {
        "details": "See {IERC721Metadata-name}."
      },
      "owner()": {
        "details": "Returns the address of the current owner."
      },
      "ownerOf(uint256)": {
        "details": "See {IERC721-ownerOf}."
      },
      "paused()": {
        "details": "Returns true if the contract is paused, and false otherwise."
      },
      "renounceOwnership()": {
        "details": "Leaves the contract without owner. It will not be possible to call `onlyOwner` functions anymore. Can only be called by the current owner. NOTE: Renouncing ownership will leave the contract without an owner, thereby removing any functionality that is only available to the owner."
      },
      "royaltyInfo(uint256,uint256)": {
        "details": "Returns how much royalty is owed and to whom, based on a sale price that may be denominated in any unit of exchange. The royalty amount is denominated and should be paid in that same unit of exchange."
      },
      "safeTransferFrom(address,address,uint256,bytes)": {
        "details": "See {IERC721-safeTransferFrom}."
      },
      "symbol()": {
        "details": "See {IERC721Metadata-symbol}."
      },
      "transferOwnership(address)": {
        "details": "Transfers ownership of the contract to a new account (`newOwner`). Can only be called by the current owner."
      }
    },
    "version": 1
  },
  "userdoc": {
    "errors": {
      "OperatorNotAllowed(address)": [
        {
          "notice": "Emitted when an operator is not allowed."
        }
      ]
    },
    "kind": "user",
    "methods": {},
    "version": 1
  }
}