{
  "contractName": "ContendersEGNFT",
  "abi": [
    {
      "inputs": [
        {
          "internalType": "address",
          "name": "operator",
          "type": "address"
        }
      ],
      "name": "OperatorNotAllowed",
      "type": "error"
    },
    {
      "anonymous": false,
      "inputs": [
        {
          "indexed": true,
          "internalType": "address",
          "name": "owner",
          "type": "address"
        },
        {
          "indexed": true,
          "internalType": "address",
          "name": "approved",
          "type": "address"
        },
        {
          "indexed": true,
          "internalType": "uint256",
          "name": "tokenId",
          "type": "uint256"
        }
      ],
      "name": "Approval",
      "type": "event"
    },
    {
      "anonymous": false,
      "inputs": [
        {
          "indexed": true,
          "internalType": "address",
          "name": "owner",
          "type": "address"
        },
        {
          "indexed": true,
          "internalType": "address",
          "name": "operator",
          "type": "address"
        },
        {
          "indexed": false,
          "internalType": "bool",
          "name": "approved",
          "type": "bool"
        }
      ],
      "name": "ApprovalForAll",
      "type": "event"
    },
    {
      "anonymous": false,
      "inputs": [
        {
          "indexed": true,
          "internalType": "address",
          "name": "_from",
          "type": "address"
        },
        {
          "indexed": false,
          "internalType": "uint256",
          "name": "_id",
          "type": "uint256"
        }
      ],
      "name": "Burn",
      "type": "event"
    },
    {
      "anonymous": false,
      "inputs": [
        {
          "indexed": false,
          "internalType": "uint8",
          "name": "version",
          "type": "uint8"
        }
      ],
      "name": "Initialized",
      "type": "event"
    },
    {
      "anonymous": false,
      "inputs": [
        {
          "indexed": true,
          "internalType": "address",
          "name": "_minter",
          "type": "address"
        },
        {
          "indexed": true,
          "internalType": "address",
          "name": "_owner",
          "type": "address"
        },
        {
          "indexed": false,
          "internalType": "uint256",
          "name": "_id",
          "type": "uint256"
        }
      ],
      "name": "Mint",
      "type": "event"
    },
    {
      "anonymous": false,
      "inputs": [
        {
          "indexed": true,
          "internalType": "address",
          "name": "previousOwner",
          "type": "address"
        },
        {
          "indexed": true,
          "internalType": "address",
          "name": "newOwner",
          "type": "address"
        }
      ],
      "name": "OwnershipTransferred",
      "type": "event"
    },
    {
      "anonymous": false,
      "inputs": [
        {
          "indexed": false,
          "internalType": "address",
          "name": "account",
          "type": "address"
        }
      ],
      "name": "Paused",
      "type": "event"
    },
    {
      "anonymous": false,
      "inputs": [
        {
          "indexed": true,
          "internalType": "address",
          "name": "from",
          "type": "address"
        },
        {
          "indexed": true,
          "internalType": "address",
          "name": "to",
          "type": "address"
        },
        {
          "indexed": true,
          "internalType": "uint256",
          "name": "tokenId",
          "type": "uint256"
        }
      ],
      "name": "Transfer",
      "type": "event"
    },
    {
      "anonymous": false,
      "inputs": [
        {
          "indexed": false,
          "internalType": "address",
          "name": "account",
          "type": "address"
        }
      ],
      "name": "Unpaused",
      "type": "event"
    },
    {
      "inputs": [
        {
          "internalType": "address",
          "name": "owner",
          "type": "address"
        }
      ],
      "name": "balanceOf",
      "outputs": [
        {
          "internalType": "uint256",
          "name": "",
          "type": "uint256"
        }
      ],
      "stateMutability": "view",
      "type": "function"
    },
    {
      "inputs": [],
      "name": "baseMetadataURI",
      "outputs": [
        {
          "internalType": "string",
          "name": "",
          "type": "string"
        }
      ],
      "stateMutability": "view",
      "type": "function"
    },
    {
      "inputs": [
        {
          "internalType": "uint256",
          "name": "tokenId",
          "type": "uint256"
        }
      ],
      "name": "getApproved",
      "outputs": [
        {
          "internalType": "address",
          "name": "",
          "type": "address"
        }
      ],
      "stateMutability": "view",
      "type": "function"
    },
    {
      "inputs": [
        {
          "internalType": "address",
          "name": "owner",
          "type": "address"
        },
        {
          "internalType": "address",
          "name": "operator",
          "type": "address"
        }
      ],
      "name": "isApprovedForAll",
      "outputs": [
        {
          "internalType": "bool",
          "name": "",
          "type": "bool"
        }
      ],
      "stateMutability": "view",
      "type": "function"
    },
    {
      "inputs": [],
      "name": "isRevealed",
      "outputs": [
        {
          "internalType": "bool",
          "name": "",
          "type": "bool"
        }
      ],
      "stateMutability": "view",
      "type": "function"
    },
    {
      "inputs": [],
      "name": "isStopped",
      "outputs": [
        {
          "internalType": "bool",
          "name": "",
          "type": "bool"
        }
      ],
      "stateMutability": "view",
      "type": "function"
    },
    {
      "inputs": [],
      "name": "maxNFTSPerPublic",
      "outputs": [
        {
          "internalType": "uint256",
          "name": "",
          "type": "uint256"
        }
      ],
      "stateMutability": "view",
      "type": "function"
    },
    {
      "inputs": [],
      "name": "maxNFTSPerSuper",
      "outputs": [
        {
          "internalType": "uint256",
          "name": "",
          "type": "uint256"
        }
      ],
      "stateMutability": "view",
      "type": "function"
    },
    {
      "inputs": [],
      "name": "mintCost",
      "outputs": [
        {
          "internalType": "uint256",
          "name": "",
          "type": "uint256"
        }
      ],
      "stateMutability": "view",
      "type": "function"
    },
    {
      "inputs": [
        {
          "internalType": "address",
          "name": "",
          "type": "address"
        }
      ],
      "name": "mintedNFTSPerPublic",
      "outputs": [
        {
          "internalType": "uint256",
          "name": "",
          "type": "uint256"
        }
      ],
      "stateMutability": "view",
      "type": "function"
    },
    {
      "inputs": [
        {
          "internalType": "address",
          "name": "",
          "type": "address"
        }
      ],
      "name": "mintedNFTSPerSuper",
      "outputs": [
        {
          "internalType": "uint256",
          "name": "",
          "type": "uint256"
        }
      ],
      "stateMutability": "view",
      "type": "function"
    },
    {
      "inputs": [],
      "name": "name",
      "outputs": [
        {
          "internalType": "string",
          "name": "",
          "type": "string"
        }
      ],
      "stateMutability": "view",
      "type": "function"
    },
    {
      "inputs": [],
      "name": "owner",
      "outputs": [
        {
          "internalType": "address",
          "name": "",
          "type": "address"
        }
      ],
      "stateMutability": "view",
      "type": "function"
    },
    {
      "inputs": [
        {
          "internalType": "uint256",
          "name": "tokenId",
          "type": "uint256"
        }
      ],
      "name": "ownerOf",
      "outputs": [
        {
          "internalType": "address",
          "name": "",
          "type": "address"
        }
      ],
      "stateMutability": "view",
      "type": "function"
    },
    {
      "inputs": [],
      "name": "paused",
      "outputs": [
        {
          "internalType": "bool",
          "name": "",
          "type": "bool"
        }
      ],
      "stateMutability": "view",
      "type": "function"
    },
    {
      "inputs": [],
      "name": "publicSupply",
      "outputs": [
        {
          "internalType": "uint256",
          "name": "",
          "type": "uint256"
        }
      ],
      "stateMutability": "view",
      "type": "function"
    },
    {
      "inputs": [],
      "name": "renounceOwnership",
      "outputs": [],
      "stateMutability": "nonpayable",
      "type": "function"
    },
    {
      "inputs": [],
      "name": "rootSuper",
      "outputs": [
        {
          "internalType": "bytes32",
          "name": "",
          "type": "bytes32"
        }
      ],
      "stateMutability": "view",
      "type": "function"
    },
    {
      "inputs": [],
      "name": "rootWhite",
      "outputs": [
        {
          "internalType": "bytes32",
          "name": "",
          "type": "bytes32"
        }
      ],
      "stateMutability": "view",
      "type": "function"
    },
    {
      "inputs": [
        {
          "internalType": "uint256",
          "name": "_tokenId",
          "type": "uint256"
        },
        {
          "internalType": "uint256",
          "name": "_salePrice",
          "type": "uint256"
        }
      ],
      "name": "royaltyInfo",
      "outputs": [
        {
          "internalType": "address",
          "name": "",
          "type": "address"
        },
        {
          "internalType": "uint256",
          "name": "",
          "type": "uint256"
        }
      ],
      "stateMutability": "view",
      "type": "function"
    },
    {
      "inputs": [],
      "name": "superSupply",
      "outputs": [
        {
          "internalType": "uint256",
          "name": "",
          "type": "uint256"
        }
      ],
      "stateMutability": "view",
      "type": "function"
    },
    {
      "inputs": [],
      "name": "symbol",
      "outputs": [
        {
          "internalType": "string",
          "name": "",
          "type": "string"
        }
      ],
      "stateMutability": "view",
      "type": "function"
    },
    {
      "inputs": [
        {
          "internalType": "address",
          "name": "newOwner",
          "type": "address"
        }
      ],
      "name": "transferOwnership",
      "outputs": [],
      "stateMutability": "nonpayable",
      "type": "function"
    },
    {
      "inputs": [],
      "name": "withheldSupply",
      "outputs": [
        {
          "internalType": "uint256",
          "name": "",
          "type": "uint256"
        }
      ],
      "stateMutability": "view",
      "type": "function"
    },
    {
      "inputs": [],
      "name": "initialize",
      "outputs": [],
      "stateMutability": "nonpayable",
      "type": "function"
    },
    {
      "inputs": [
        {
          "internalType": "bytes4",
          "name": "interfaceId",
          "type": "bytes4"
        }
      ],
      "name": "supportsInterface",
      "outputs": [
        {
          "internalType": "bool",
          "name": "",
          "type": "bool"
        }
      ],
      "stateMutability": "view",
      "type": "function"
    },
    {
      "inputs": [
        {
          "internalType": "bytes32[]",
          "name": "_proof",
          "type": "bytes32[]"
        }
      ],
      "name": "isValidWhite",
      "outputs": [
        {
          "internalType": "bool",
          "name": "",
          "type": "bool"
        }
      ],
      "stateMutability": "view",
      "type": "function"
    },
    {
      "inputs": [
        {
          "internalType": "bytes32[]",
          "name": "_proof",
          "type": "bytes32[]"
        }
      ],
      "name": "isValidSuper",
      "outputs": [
        {
          "internalType": "bool",
          "name": "",
          "type": "bool"
        }
      ],
      "stateMutability": "view",
      "type": "function"
    },
    {
      "inputs": [
        {
          "internalType": "bytes32",
          "name": "_root",
          "type": "bytes32"
        }
      ],
      "name": "setRootWhite",
      "outputs": [],
      "stateMutability": "nonpayable",
      "type": "function"
    },
    {
      "inputs": [
        {
          "internalType": "bytes32",
          "name": "_root",
          "type": "bytes32"
        }
      ],
      "name": "setRootSuper",
      "outputs": [],
      "stateMutability": "nonpayable",
      "type": "function"
    },
    {
      "inputs": [
        {
          "internalType": "uint256",
          "name": "_numberOfNFTs",
          "type": "uint256"
        },
        {
          "internalType": "bytes32[]",
          "name": "_proof",
          "type": "bytes32[]"
        }
      ],
      "name": "mintPublic",
      "outputs": [],
      "stateMutability": "payable",
      "type": "function"
    },
    {
      "inputs": [
        {
          "internalType": "bytes32[]",
          "name": "_proof",
          "type": "bytes32[]"
        }
      ],
      "name": "mintSuper",
      "outputs": [],
      "stateMutability": "payable",
      "type": "function"
    },
    {
      "inputs": [
        {
          "internalType": "address",
          "name": "_to",
          "type": "address"
        },
        {
          "internalType": "uint256",
          "name": "_numberOfNFTs",
          "type": "uint256"
        }
      ],
      "name": "mintWithheld",
      "outputs": [],
      "stateMutability": "nonpayable",
      "type": "function"
    },
    {
      "inputs": [
        {
          "internalType": "uint256",
          "name": "_id",
          "type": "uint256"
        }
      ],
      "name": "burn",
      "outputs": [],
      "stateMutability": "nonpayable",
      "type": "function"
    },
    {
      "inputs": [],
      "name": "revealAll",
      "outputs": [],
      "stateMutability": "nonpayable",
      "type": "function"
    },
    {
      "inputs": [
        {
          "internalType": "uint256",
          "name": "_id",
          "type": "uint256"
        }
      ],
      "name": "tokenURI",
      "outputs": [
        {
          "internalType": "string",
          "name": "",
          "type": "string"
        }
      ],
      "stateMutability": "view",
      "type": "function"
    },
    {
      "inputs": [
        {
          "internalType": "address",
          "name": "operator",
          "type": "address"
        },
        {
          "internalType": "bool",
          "name": "approved",
          "type": "bool"
        }
      ],
      "name": "setApprovalForAll",
      "outputs": [],
      "stateMutability": "nonpayable",
      "type": "function"
    },
    {
      "inputs": [
        {
          "internalType": "address",
          "name": "operator",
          "type": "address"
        },
        {
          "internalType": "uint256",
          "name": "tokenId",
          "type": "uint256"
        }
      ],
      "name": "approve",
      "outputs": [],
      "stateMutability": "nonpayable",
      "type": "function"
    },
    {
      "inputs": [
        {
          "internalType": "address",
          "name": "from",
          "type": "address"
        },
        {
          "internalType": "address",
          "name": "to",
          "type": "address"
        },
        {
          "internalType": "uint256",
          "name": "tokenId",
          "type": "uint256"
        }
      ],
      "name": "transferFrom",
      "outputs": [],
      "stateMutability": "nonpayable",
      "type": "function"
    },
    {
      "inputs": [
        {
          "internalType": "address",
          "name": "from",
          "type": "address"
        },
        {
          "internalType": "address",
          "name": "to",
          "type": "address"
        },
        {
          "internalType": "uint256",
          "name": "tokenId",
          "type": "uint256"
        }
      ],
      "name": "safeTransferFrom",
      "outputs": [],
      "stateMutability": "nonpayable",
      "type": "function"
    },
    {
      "inputs": [
        {
          "internalType": "address",
          "name": "from",
          "type": "address"
        },
        {
          "internalType": "address",
          "name": "to",
          "type": "address"
        },
        {
          "internalType": "uint256",
          "name": "tokenId",
          "type": "uint256"
        },
        {
          "internalType": "bytes",
          "name": "data",
          "type": "bytes"
        }
      ],
      "name": "safeTransferFrom",
      "outputs": [],
      "stateMutability": "nonpayable",
      "type": "function"
    },
    {
      "inputs": [
        {
          "internalType": "address",
          "name": "_to",
          "type": "address"
        }
      ],
      "name": "withdraw",
      "outputs": [],
      "stateMutability": "nonpayable",
      "type": "function"
    },
    {
      "inputs": [
        {
          "internalType": "uint256",
          "name": "_cost",
          "type": "uint256"
        }
      ],
      "name": "setMintCost",
      "outputs": [],
      "stateMutability": "nonpayable",
      "type": "function"
    },
    {
      "inputs": [
        {
          "internalType": "string",
          "name": "_newBaseMetadataUri",
          "type": "string"
        }
      ],
      "name": "setBaseMetadataURI",
      "outputs": [],
      "stateMutability": "nonpayable",
      "type": "function"
    },
    {
      "inputs": [
        {
          "internalType": "bool",
          "name": "_action",
          "type": "bool"
        }
      ],
      "name": "setAction",
      "outputs": [],
      "stateMutability": "nonpayable",
      "type": "function"
    },
    {
      "inputs": [],
      "name": "addToPublicSupply",
      "outputs": [],
      "stateMutability": "nonpayable",
      "type": "function"
    }
  ],
  "bytecode": "0x608060405234801561001057600080fd5b506159ed80620000216000396000f3fe60806040526004361061027d5760003560e01c806367988bee1161014f5780639789ddbb116100c1578063bec82ed01161007a578063bec82ed014610945578063c87b56dd14610982578063d2ae54ce146109bf578063d2ec1b57146109fc578063e985e9c514610a13578063f2fde38b14610a505761027d565b80639789ddbb14610844578063a22cb46514610881578063a2e03dd0146108aa578063b3731a26146108d5578063b88d4fde146108f1578063bdb4b8481461091a5761027d565b80637e518ec8116101135780637e518ec81461075c5780638129fc1c146107855780638545f4ea1461079c5780638da5cb5b146107c557806391574136146107f057806395d89b41146108195761027d565b806367988bee146106965780636d07e606146106c157806370a08231146106dd578063715018a61461071a578063785d783f146107315761027d565b806342842e0e116101f35780635b2bd79e116101ac5780635b2bd79e146105705780635c975abb1461059b5780635dfebca3146105c65780635e84d7231461060357806360db86081461062e5780636352211e146106595761027d565b806342842e0e1461048857806342966c68146104b157806342d0e74e146104da5780635113a604146104f157806351cff8d91461051c57806354214f69146105455761027d565b80630bd5233a116102455780630bd5233a146103795780631975fce8146103a257806323b872dd146103cb5780632a55205a146103f45780632b2eeb9e146104325780633f683b6a1461045d5761027d565b806301ffc9a71461028257806306fdde03146102bf578063081812fc146102ea578063095ea7b3146103275780630a33973914610350575b600080fd5b34801561028e57600080fd5b506102a960048036038101906102a49190613b57565b610a79565b6040516102b69190613b9f565b60405180910390f35b3480156102cb57600080fd5b506102d4610a8b565b6040516102e19190613c4a565b60405180910390f35b3480156102f657600080fd5b50610311600480360381019061030c9190613ca2565b610b1d565b60405161031e9190613d10565b60405180910390f35b34801561033357600080fd5b5061034e60048036038101906103499190613d57565b610b63565b005b34801561035c57600080fd5b5061037760048036038101906103729190613d57565b610b8c565b005b34801561038557600080fd5b506103a0600480360381019061039b9190613dc3565b610dbc565b005b3480156103ae57600080fd5b506103c960048036038101906103c49190613e26565b610de2565b005b3480156103d757600080fd5b506103f260048036038101906103ed9190613e53565b610df5565b005b34801561040057600080fd5b5061041b60048036038101906104169190613ea6565b610e44565b604051610429929190613ef5565b60405180910390f35b34801561043e57600080fd5b5061044761102e565b6040516104549190613f2d565b60405180910390f35b34801561046957600080fd5b50610472611035565b60405161047f9190613b9f565b60405180910390f35b34801561049457600080fd5b506104af60048036038101906104aa9190613e53565b611049565b005b3480156104bd57600080fd5b506104d860048036038101906104d39190613ca2565b611098565b005b3480156104e657600080fd5b506104ef611102565b005b3480156104fd57600080fd5b50610506611128565b6040516105139190613f2d565b60405180910390f35b34801561052857600080fd5b50610543600480360381019061053e9190613f48565b61112f565b005b34801561055157600080fd5b5061055a611187565b6040516105679190613b9f565b60405180910390f35b34801561057c57600080fd5b5061058561119b565b6040516105929190613c4a565b60405180910390f35b3480156105a757600080fd5b506105b061122a565b6040516105bd9190613b9f565b60405180910390f35b3480156105d257600080fd5b506105ed60048036038101906105e891906140bd565b611241565b6040516105fa9190613b9f565b60405180910390f35b34801561060f57600080fd5b50610618611283565b6040516106259190614106565b60405180910390f35b34801561063a57600080fd5b5061064361128a565b6040516106509190614106565b60405180910390f35b34801561066557600080fd5b50610680600480360381019061067b9190613ca2565b611291565b60405161068d9190613d10565b60405180910390f35b3480156106a257600080fd5b506106ab611317565b6040516106b89190614106565b60405180910390f35b6106db60048036038101906106d691906140bd565b61131e565b005b3480156106e957600080fd5b5061070460048036038101906106ff9190613f48565b6115bf565b6040516107119190614106565b60405180910390f35b34801561072657600080fd5b5061072f611676565b005b34801561073d57600080fd5b5061074661168a565b6040516107539190614106565b60405180910390f35b34801561076857600080fd5b50610783600480360381019061077e91906141d6565b611691565b005b34801561079157600080fd5b5061079a6116ad565b005b3480156107a857600080fd5b506107c360048036038101906107be9190613ca2565b611883565b005b3480156107d157600080fd5b506107da611896565b6040516107e79190613d10565b60405180910390f35b3480156107fc57600080fd5b5061081760048036038101906108129190613e26565b6118c0565b005b34801561082557600080fd5b5061082e6118d3565b60405161083b9190613c4a565b60405180910390f35b34801561085057600080fd5b5061086b60048036038101906108669190613f48565b611965565b6040516108789190614106565b60405180910390f35b34801561088d57600080fd5b506108a860048036038101906108a3919061421f565b61197e565b005b3480156108b657600080fd5b506108bf6119a7565b6040516108cc9190614106565b60405180910390f35b6108ef60048036038101906108ea919061425f565b6119ae565b005b3480156108fd57600080fd5b506109186004803603810190610913919061435c565b611e0f565b005b34801561092657600080fd5b5061092f611e71565b60405161093c9190614106565b60405180910390f35b34801561095157600080fd5b5061096c60048036038101906109679190613f48565b611e78565b6040516109799190614106565b60405180910390f35b34801561098e57600080fd5b506109a960048036038101906109a49190613ca2565b611e91565b6040516109b69190613c4a565b60405180910390f35b3480156109cb57600080fd5b506109e660048036038101906109e191906140bd565b611f70565b6040516109f39190613b9f565b60405180910390f35b348015610a0857600080fd5b50610a11611fb2565b005b348015610a1f57600080fd5b50610a3a6004803603810190610a3591906143df565b612028565b604051610a479190613b9f565b60405180910390f35b348015610a5c57600080fd5b50610a776004803603810190610a729190613f48565b6120bd565b005b6000610a8482612140565b9050919050565b606060fb8054610a9a9061444e565b80601f0160208091040260200160405190810160405280929190818152602001828054610ac69061444e565b8015610b135780601f10610ae857610100808354040283529160200191610b13565b820191906000526020600020905b815481529060010190602001808311610af657829003601f168201915b5050505050905090565b6000610b2882612222565b60ff600083815260200190815260200160002060009054906101000a900473ffffffffffffffffffffffffffffffffffffffff169050919050565b81610b6d8161226d565b610b7561236a565b610b7f83836123bb565b610b876124d2565b505050565b610b946124dd565b610b9c61236a565b61019e60009054906101000a900460ff1615610bed576040517f08c379a0000000000000000000000000000000000000000000000000000000008152600401610be4906144cb565b60405180910390fd5b60006101985411610c33576040517f08c379a0000000000000000000000000000000000000000000000000000000008152600401610c2a9061455d565b60405180910390fd5b60018103610ce3576000610c4861019161255b565b9050610c548382612569565b6101986000815480929190610c68906145ac565b9190505550610c78610191612587565b8273ffffffffffffffffffffffffffffffffffffffff163373ffffffffffffffffffffffffffffffffffffffff167fab8530f87dc9b59234c4623bf917212bb2536d647574c8e7e5da92c2ede0c9f883604051610cd59190614106565b60405180910390a350610db0565b6001811115610daf5760005b81811015610dad576000610d0461019161255b565b9050610d103382612569565b6101986000815480929190610d24906145ac565b9190505550610d34610191612587565b3373ffffffffffffffffffffffffffffffffffffffff163373ffffffffffffffffffffffffffffffffffffffff167fab8530f87dc9b59234c4623bf917212bb2536d647574c8e7e5da92c2ede0c9f883604051610d919190614106565b60405180910390a3508080610da5906145d5565b915050610cef565b505b5b610db86124d2565b5050565b610dc46124dd565b8061019e60006101000a81548160ff02191690831515021790555050565b610dea6124dd565b806101938190555050565b823373ffffffffffffffffffffffffffffffffffffffff168173ffffffffffffffffffffffffffffffffffffffff1614610e3357610e323361226d565b5b610e3e84848461259d565b50505050565b6000806000606660008681526020019081526020016000206040518060400160405290816000820160009054906101000a900473ffffffffffffffffffffffffffffffffffffffff1673ffffffffffffffffffffffffffffffffffffffff1673ffffffffffffffffffffffffffffffffffffffff1681526020016000820160149054906101000a90046bffffffffffffffffffffffff166bffffffffffffffffffffffff166bffffffffffffffffffffffff16815250509050600073ffffffffffffffffffffffffffffffffffffffff16816000015173ffffffffffffffffffffffffffffffffffffffff1603610fd95760656040518060400160405290816000820160009054906101000a900473ffffffffffffffffffffffffffffffffffffffff1673ffffffffffffffffffffffffffffffffffffffff1673ffffffffffffffffffffffffffffffffffffffff1681526020016000820160149054906101000a90046bffffffffffffffffffffffff166bffffffffffffffffffffffff166bffffffffffffffffffffffff168152505090505b6000610fe36125fd565b6bffffffffffffffffffffffff1682602001516bffffffffffffffffffffffff168661100f919061461d565b611019919061468e565b90508160000151819350935050509250929050565b6101935481565b61019e60009054906101000a900460ff1681565b823373ffffffffffffffffffffffffffffffffffffffff168173ffffffffffffffffffffffffffffffffffffffff1614611087576110863361226d565b5b611092848484612607565b50505050565b6110a061236a565b6110a981612627565b3373ffffffffffffffffffffffffffffffffffffffff167fcc16f5dbb4873280815c1ee09dbd06736cffcc184412cf7a71a0fdb75d397ca5826040516110ef9190614106565b60405180910390a26110ff6124d2565b50565b61110a6124dd565b600161019960006101000a81548160ff021916908315150217905550565b6101925481565b6111376124dd565b60004790508173ffffffffffffffffffffffffffffffffffffffff166108fc829081150290604051600060405180830381858888f19350505050158015611182573d6000803e3d6000fd5b505050565b61019960009054906101000a900460ff1681565b61019d80546111a99061444e565b80601f01602080910402602001604051908101604052809291908181526020018280546111d59061444e565b80156112225780601f106111f757610100808354040283529160200191611222565b820191906000526020600020905b81548152906001019060200180831161120557829003601f168201915b505050505081565b600060c960009054906101000a900460ff16905090565b600080336040516020016112559190613d10565b60405160208183030381529060405280519060200120905061127b836101925483612775565b915050919050565b6101965481565b6101975481565b60008061129d8361278c565b9050600073ffffffffffffffffffffffffffffffffffffffff168173ffffffffffffffffffffffffffffffffffffffff160361130e576040517f08c379a00000000000000000000000000000000000000000000000000000000081526004016113059061470b565b60405180910390fd5b80915050919050565b61019c5481565b61132661236a565b61019e60009054906101000a900460ff1615611377576040517f08c379a000000000000000000000000000000000000000000000000000000000815260040161136e906144cb565b60405180910390fd5b61138081611f70565b6113bf576040517f08c379a00000000000000000000000000000000000000000000000000000000081526004016113b690614777565b60405180910390fd5b61019c5461019a546113d1919061461d565b341015611413576040517f08c379a000000000000000000000000000000000000000000000000000000000815260040161140a906147e3565b60405180910390fd5b61019c5461019560003373ffffffffffffffffffffffffffffffffffffffff1673ffffffffffffffffffffffffffffffffffffffff168152602001908152602001600020541015611499576040517f08c379a000000000000000000000000000000000000000000000000000000000815260040161149090614875565b60405180910390fd5b60005b61019c548110156115b35760006114b461019161255b565b90506114c03382612569565b61019560003373ffffffffffffffffffffffffffffffffffffffff1673ffffffffffffffffffffffffffffffffffffffff1681526020019081526020016000206000815480929190611511906145d5565b9190505550610197600081548092919061152a906145ac565b919050555061153a610191612587565b3373ffffffffffffffffffffffffffffffffffffffff163373ffffffffffffffffffffffffffffffffffffffff167fab8530f87dc9b59234c4623bf917212bb2536d647574c8e7e5da92c2ede0c9f8836040516115979190614106565b60405180910390a35080806115ab906145d5565b91505061149c565b506115bc6124d2565b50565b60008073ffffffffffffffffffffffffffffffffffffffff168273ffffffffffffffffffffffffffffffffffffffff160361162f576040517f08c379a000000000000000000000000000000000000000000000000000000000815260040161162690614907565b60405180910390fd5b60fe60008373ffffffffffffffffffffffffffffffffffffffff1673ffffffffffffffffffffffffffffffffffffffff168152602001908152602001600020549050919050565b61167e6124dd565b61168860006127c9565b565b6101985481565b6116996124dd565b8061019d90816116a99190614ad3565b5050565b60008060019054906101000a900460ff161590508080156116de5750600160008054906101000a900460ff1660ff16105b8061170b57506116ed3061288f565b15801561170a5750600160008054906101000a900460ff1660ff16145b5b61174a576040517f08c379a000000000000000000000000000000000000000000000000000000000815260040161174190614c17565b60405180910390fd5b60016000806101000a81548160ff021916908360ff1602179055508015611787576001600060016101000a81548160ff0219169083151502179055505b61178f6128b2565b61179761290b565b611e466101968190555061028a6101988190555061064061019781905550662386f26fc1000061019a81905550600461019b81905550600861019c81905550600061019960006101000a81548160ff0219169083151502179055506117fe3361028a612964565b6040518060800160405280604381526020016159756043913961019d90816118269190614ad3565b5080156118805760008060016101000a81548160ff0219169083151502179055507f7f26b83ff96e1f2b6a682f133852f6798a09c465da95921460cefb384740249860016040516118779190614c7f565b60405180910390a15b50565b61188b6124dd565b8061019a8190555050565b6000609760009054906101000a900473ffffffffffffffffffffffffffffffffffffffff16905090565b6118c86124dd565b806101928190555050565b606060fc80546118e29061444e565b80601f016020809104026020016040519081016040528092919081815260200182805461190e9061444e565b801561195b5780601f106119305761010080835404028352916020019161195b565b820191906000526020600020905b81548152906001019060200180831161193e57829003601f168201915b5050505050905090565b6101946020528060005260406000206000915090505481565b816119888161226d565b61199061236a565b61199a8383612af9565b6119a26124d2565b505050565b61019b5481565b6119b661236a565b61019e60009054906101000a900460ff1615611a07576040517f08c379a00000000000000000000000000000000000000000000000000000000081526004016119fe906144cb565b60405180910390fd5b611a1081611241565b611a4f576040517f08c379a0000000000000000000000000000000000000000000000000000000008152600401611a4690614ce6565b60405180910390fd5b61019b548261019460003373ffffffffffffffffffffffffffffffffffffffff1673ffffffffffffffffffffffffffffffffffffffff16815260200190815260200160002054611a9f9190614d06565b1115611ae0576040517f08c379a0000000000000000000000000000000000000000000000000000000008152600401611ad790614dac565b60405180910390fd5b60018210158015611af2575060048211155b611b31576040517f08c379a0000000000000000000000000000000000000000000000000000000008152600401611b2890614e18565b60405180910390fd5b8161019a54611b40919061461d565b341015611b82576040517f08c379a0000000000000000000000000000000000000000000000000000000008152600401611b79906147e3565b60405180910390fd5b81610196541015611bc8576040517f08c379a0000000000000000000000000000000000000000000000000000000008152600401611bbf90614eaa565b60405180910390fd5b60018203611cce576000611bdd61019161255b565b9050611be93382612569565b61019460003373ffffffffffffffffffffffffffffffffffffffff1673ffffffffffffffffffffffffffffffffffffffff1681526020019081526020016000206000815480929190611c3a906145d5565b91905055506101966000815480929190611c53906145ac565b9190505550611c63610191612587565b3373ffffffffffffffffffffffffffffffffffffffff163373ffffffffffffffffffffffffffffffffffffffff167fab8530f87dc9b59234c4623bf917212bb2536d647574c8e7e5da92c2ede0c9f883604051611cc09190614106565b60405180910390a350611e03565b600182118015611ce1575061019b548211155b15611e025760005b61019b54811015611e00576000611d0161019161255b565b9050611d0d3382612569565b61019460003373ffffffffffffffffffffffffffffffffffffffff1673ffffffffffffffffffffffffffffffffffffffff1681526020019081526020016000206000815480929190611d5e906145d5565b91905055506101966000815480929190611d77906145ac565b9190505550611d87610191612587565b3373ffffffffffffffffffffffffffffffffffffffff163373ffffffffffffffffffffffffffffffffffffffff167fab8530f87dc9b59234c4623bf917212bb2536d647574c8e7e5da92c2ede0c9f883604051611de49190614106565b60405180910390a3508080611df8906145d5565b915050611ce9565b505b5b611e0b6124d2565b5050565b611e20611e1a612b0f565b83612b17565b611e5f576040517f08c379a0000000000000000000000000000000000000000000000000000000008152600401611e5690614f3c565b60405180910390fd5b611e6b84848484612bac565b50505050565b61019a5481565b6101956020528060005260406000206000915090505481565b606061019960009054906101000a900460ff1615611edc5761019d611eb583612c08565b604051602001611ec692919061501b565b6040516020818303038152906040529050611f6b565b61019d8054611eea9061444e565b80601f0160208091040260200160405190810160405280929190818152602001828054611f169061444e565b8015611f635780601f10611f3857610100808354040283529160200191611f63565b820191906000526020600020905b815481529060010190602001808311611f4657829003601f168201915b505050505090505b919050565b60008033604051602001611f849190613d10565b604051602081830303815290604052805190602001209050611faa836101935483612775565b915050919050565b611fba6124dd565b60006101975411612000576040517f08c379a0000000000000000000000000000000000000000000000000000000008152600401611ff79061508b565b60405180910390fd5b6101975461019660008282546120169190614d06565b92505081905550600061019781905550565b600061010060008473ffffffffffffffffffffffffffffffffffffffff1673ffffffffffffffffffffffffffffffffffffffff16815260200190815260200160002060008373ffffffffffffffffffffffffffffffffffffffff1673ffffffffffffffffffffffffffffffffffffffff16815260200190815260200160002060009054906101000a900460ff16905092915050565b6120c56124dd565b600073ffffffffffffffffffffffffffffffffffffffff168173ffffffffffffffffffffffffffffffffffffffff1603612134576040517f08c379a000000000000000000000000000000000000000000000000000000000815260040161212b9061511d565b60405180910390fd5b61213d816127c9565b50565b60007f80ac58cd000000000000000000000000000000000000000000000000000000007bffffffffffffffffffffffffffffffffffffffffffffffffffffffff1916827bffffffffffffffffffffffffffffffffffffffffffffffffffffffff1916148061220b57507f5b5e139f000000000000000000000000000000000000000000000000000000007bffffffffffffffffffffffffffffffffffffffffffffffffffffffff1916827bffffffffffffffffffffffffffffffffffffffffffffffffffffffff1916145b8061221b575061221a82612cd6565b5b9050919050565b61222b81612d50565b61226a576040517f08c379a00000000000000000000000000000000000000000000000000000000081526004016122619061470b565b60405180910390fd5b50565b60006daaeb6d7670e522a718067333cd4e73ffffffffffffffffffffffffffffffffffffffff163b1115612367576daaeb6d7670e522a718067333cd4e73ffffffffffffffffffffffffffffffffffffffff1663c617113430836040518363ffffffff1660e01b81526004016122e492919061513d565b602060405180830381865afa158015612301573d6000803e3d6000fd5b505050506040513d601f19601f82011682018060405250810190612325919061517b565b61236657806040517fede71dcc00000000000000000000000000000000000000000000000000000000815260040161235d9190613d10565b60405180910390fd5b5b50565b600261015f54036123b0576040517f08c379a00000000000000000000000000000000000000000000000000000000081526004016123a7906151f4565b60405180910390fd5b600261015f81905550565b60006123c682611291565b90508073ffffffffffffffffffffffffffffffffffffffff168373ffffffffffffffffffffffffffffffffffffffff1603612436576040517f08c379a000000000000000000000000000000000000000000000000000000000815260040161242d90615286565b60405180910390fd5b8073ffffffffffffffffffffffffffffffffffffffff16612455612b0f565b73ffffffffffffffffffffffffffffffffffffffff16148061248457506124838161247e612b0f565b612028565b5b6124c3576040517f08c379a00000000000000000000000000000000000000000000000000000000081526004016124ba90615318565b60405180910390fd5b6124cd8383612d91565b505050565b600161015f81905550565b6124e5612b0f565b73ffffffffffffffffffffffffffffffffffffffff16612503611896565b73ffffffffffffffffffffffffffffffffffffffff1614612559576040517f08c379a000000000000000000000000000000000000000000000000000000000815260040161255090615384565b60405180910390fd5b565b600081600001549050919050565b612583828260405180602001604052806000815250612e4a565b5050565b6001816000016000828254019250508190555050565b6125ae6125a8612b0f565b82612b17565b6125ed576040517f08c379a00000000000000000000000000000000000000000000000000000000081526004016125e490614f3c565b60405180910390fd5b6125f8838383612ea5565b505050565b6000612710905090565b61262283838360405180602001604052806000815250611e0f565b505050565b600061263282611291565b905061264281600084600161319e565b61264b82611291565b905060ff600083815260200190815260200160002060006101000a81549073ffffffffffffffffffffffffffffffffffffffff0219169055600160fe60008373ffffffffffffffffffffffffffffffffffffffff1673ffffffffffffffffffffffffffffffffffffffff1681526020019081526020016000206000828254039250508190555060fd600083815260200190815260200160002060006101000a81549073ffffffffffffffffffffffffffffffffffffffff021916905581600073ffffffffffffffffffffffffffffffffffffffff168273ffffffffffffffffffffffffffffffffffffffff167fddf252ad1be2c89b69c2b068fc378daa952ba7f163c4a11628f55a4df523b3ef60405160405180910390a46127718160008460016132c4565b5050565b60008261278285846132ca565b1490509392505050565b600060fd600083815260200190815260200160002060009054906101000a900473ffffffffffffffffffffffffffffffffffffffff169050919050565b6000609760009054906101000a900473ffffffffffffffffffffffffffffffffffffffff16905081609760006101000a81548173ffffffffffffffffffffffffffffffffffffffff021916908373ffffffffffffffffffffffffffffffffffffffff1602179055508173ffffffffffffffffffffffffffffffffffffffff168173ffffffffffffffffffffffffffffffffffffffff167f8be0079c531659141344cd1fd0a4f28419497f9722a3daafe3b4186f6b6457e060405160405180910390a35050565b6000808273ffffffffffffffffffffffffffffffffffffffff163b119050919050565b600060019054906101000a900460ff16612901576040517f08c379a00000000000000000000000000000000000000000000000000000000081526004016128f890615416565b60405180910390fd5b612909613320565b565b600060019054906101000a900460ff1661295a576040517f08c379a000000000000000000000000000000000000000000000000000000000815260040161295190615416565b60405180910390fd5b612962613381565b565b61296c6125fd565b6bffffffffffffffffffffffff16816bffffffffffffffffffffffff1611156129ca576040517f08c379a00000000000000000000000000000000000000000000000000000000081526004016129c1906154a8565b60405180910390fd5b600073ffffffffffffffffffffffffffffffffffffffff168273ffffffffffffffffffffffffffffffffffffffff1603612a39576040517f08c379a0000000000000000000000000000000000000000000000000000000008152600401612a3090615514565b60405180910390fd5b60405180604001604052808373ffffffffffffffffffffffffffffffffffffffff168152602001826bffffffffffffffffffffffff16815250606560008201518160000160006101000a81548173ffffffffffffffffffffffffffffffffffffffff021916908373ffffffffffffffffffffffffffffffffffffffff16021790555060208201518160000160146101000a8154816bffffffffffffffffffffffff02191690836bffffffffffffffffffffffff1602179055509050505050565b612b0b612b04612b0f565b83836133db565b5050565b600033905090565b600080612b2383611291565b90508073ffffffffffffffffffffffffffffffffffffffff168473ffffffffffffffffffffffffffffffffffffffff161480612b655750612b648185612028565b5b80612ba357508373ffffffffffffffffffffffffffffffffffffffff16612b8b84610b1d565b73ffffffffffffffffffffffffffffffffffffffff16145b91505092915050565b612bb7848484612ea5565b612bc384848484613548565b612c02576040517f08c379a0000000000000000000000000000000000000000000000000000000008152600401612bf9906155a6565b60405180910390fd5b50505050565b606060006001612c17846136cf565b01905060008167ffffffffffffffff811115612c3657612c35613f7a565b5b6040519080825280601f01601f191660200182016040528015612c685781602001600182028036833780820191505090505b509050600082602001820190505b600115612ccb578080600190039150507f3031323334353637383961626364656600000000000000000000000000000000600a86061a8153600a8581612cbf57612cbe61465f565b5b04945060008503612c76575b819350505050919050565b60007f2a55205a000000000000000000000000000000000000000000000000000000007bffffffffffffffffffffffffffffffffffffffffffffffffffffffff1916827bffffffffffffffffffffffffffffffffffffffffffffffffffffffff19161480612d495750612d4882613822565b5b9050919050565b60008073ffffffffffffffffffffffffffffffffffffffff16612d728361278c565b73ffffffffffffffffffffffffffffffffffffffff1614159050919050565b8160ff600083815260200190815260200160002060006101000a81548173ffffffffffffffffffffffffffffffffffffffff021916908373ffffffffffffffffffffffffffffffffffffffff160217905550808273ffffffffffffffffffffffffffffffffffffffff16612e0483611291565b73ffffffffffffffffffffffffffffffffffffffff167f8c5be1e5ebec7d5bd14f71427d1e84f3dd0314c0f7b2291e5b200ac8c7c3b92560405160405180910390a45050565b612e54838361388c565b612e616000848484613548565b612ea0576040517f08c379a0000000000000000000000000000000000000000000000000000000008152600401612e97906155a6565b60405180910390fd5b505050565b8273ffffffffffffffffffffffffffffffffffffffff16612ec582611291565b73ffffffffffffffffffffffffffffffffffffffff1614612f1b576040517f08c379a0000000000000000000000000000000000000000000000000000000008152600401612f1290615638565b60405180910390fd5b600073ffffffffffffffffffffffffffffffffffffffff168273ffffffffffffffffffffffffffffffffffffffff1603612f8a576040517f08c379a0000000000000000000000000000000000000000000000000000000008152600401612f81906156ca565b60405180910390fd5b612f97838383600161319e565b8273ffffffffffffffffffffffffffffffffffffffff16612fb782611291565b73ffffffffffffffffffffffffffffffffffffffff161461300d576040517f08c379a000000000000000000000000000000000000000000000000000000000815260040161300490615638565b60405180910390fd5b60ff600082815260200190815260200160002060006101000a81549073ffffffffffffffffffffffffffffffffffffffff0219169055600160fe60008573ffffffffffffffffffffffffffffffffffffffff1673ffffffffffffffffffffffffffffffffffffffff16815260200190815260200160002060008282540392505081905550600160fe60008473ffffffffffffffffffffffffffffffffffffffff1673ffffffffffffffffffffffffffffffffffffffff168152602001908152602001600020600082825401925050819055508160fd600083815260200190815260200160002060006101000a81548173ffffffffffffffffffffffffffffffffffffffff021916908373ffffffffffffffffffffffffffffffffffffffff160217905550808273ffffffffffffffffffffffffffffffffffffffff168473ffffffffffffffffffffffffffffffffffffffff167fddf252ad1be2c89b69c2b068fc378daa952ba7f163c4a11628f55a4df523b3ef60405160405180910390a461319983838360016132c4565b505050565b60018111156132be57600073ffffffffffffffffffffffffffffffffffffffff168473ffffffffffffffffffffffffffffffffffffffff1614613232578060fe60008673ffffffffffffffffffffffffffffffffffffffff1673ffffffffffffffffffffffffffffffffffffffff168152602001908152602001600020600082825461322a91906156ea565b925050819055505b600073ffffffffffffffffffffffffffffffffffffffff168373ffffffffffffffffffffffffffffffffffffffff16146132bd578060fe60008573ffffffffffffffffffffffffffffffffffffffff1673ffffffffffffffffffffffffffffffffffffffff16815260200190815260200160002060008282546132b59190614d06565b925050819055505b5b50505050565b50505050565b60008082905060005b845181101561331557613300828683815181106132f3576132f261571e565b5b6020026020010151613aa9565b9150808061330d906145d5565b9150506132d3565b508091505092915050565b600060019054906101000a900460ff1661336f576040517f08c379a000000000000000000000000000000000000000000000000000000000815260040161336690615416565b60405180910390fd5b61337f61337a612b0f565b6127c9565b565b600060019054906101000a900460ff166133d0576040517f08c379a00000000000000000000000000000000000000000000000000000000081526004016133c790615416565b60405180910390fd5b600161015f81905550565b8173ffffffffffffffffffffffffffffffffffffffff168373ffffffffffffffffffffffffffffffffffffffff1603613449576040517f08c379a000000000000000000000000000000000000000000000000000000000815260040161344090615799565b60405180910390fd5b8061010060008573ffffffffffffffffffffffffffffffffffffffff1673ffffffffffffffffffffffffffffffffffffffff16815260200190815260200160002060008473ffffffffffffffffffffffffffffffffffffffff1673ffffffffffffffffffffffffffffffffffffffff16815260200190815260200160002060006101000a81548160ff0219169083151502179055508173ffffffffffffffffffffffffffffffffffffffff168373ffffffffffffffffffffffffffffffffffffffff167f17307eab39ab6107e8899845ad3d59bd9653f200f220920489ca2b5937696c318360405161353b9190613b9f565b60405180910390a3505050565b60006135698473ffffffffffffffffffffffffffffffffffffffff1661288f565b156136c2578373ffffffffffffffffffffffffffffffffffffffff1663150b7a02613592612b0f565b8786866040518563ffffffff1660e01b81526004016135b4949392919061580e565b6020604051808303816000875af19250505080156135f057506040513d601f19601f820116820180604052508101906135ed919061586f565b60015b613672573d8060008114613620576040519150601f19603f3d011682016040523d82523d6000602084013e613625565b606091505b50600081510361366a576040517f08c379a0000000000000000000000000000000000000000000000000000000008152600401613661906155a6565b60405180910390fd5b805181602001fd5b63150b7a0260e01b7bffffffffffffffffffffffffffffffffffffffffffffffffffffffff1916817bffffffffffffffffffffffffffffffffffffffffffffffffffffffff1916149150506136c7565b600190505b949350505050565b600080600090507a184f03e93ff9f4daa797ed6e38ed64bf6a1f010000000000000000831061372d577a184f03e93ff9f4daa797ed6e38ed64bf6a1f01000000000000000083816137235761372261465f565b5b0492506040810190505b6d04ee2d6d415b85acef8100000000831061376a576d04ee2d6d415b85acef810000000083816137605761375f61465f565b5b0492506020810190505b662386f26fc10000831061379957662386f26fc10000838161378f5761378e61465f565b5b0492506010810190505b6305f5e10083106137c2576305f5e10083816137b8576137b761465f565b5b0492506008810190505b61271083106137e75761271083816137dd576137dc61465f565b5b0492506004810190505b6064831061380a5760648381613800576137ff61465f565b5b0492506002810190505b600a8310613819576001810190505b80915050919050565b60007f01ffc9a7000000000000000000000000000000000000000000000000000000007bffffffffffffffffffffffffffffffffffffffffffffffffffffffff1916827bffffffffffffffffffffffffffffffffffffffffffffffffffffffff1916149050919050565b600073ffffffffffffffffffffffffffffffffffffffff168273ffffffffffffffffffffffffffffffffffffffff16036138fb576040517f08c379a00000000000000000000000000000000000000000000000000000000081526004016138f2906158e8565b60405180910390fd5b61390481612d50565b15613944576040517f08c379a000000000000000000000000000000000000000000000000000000000815260040161393b90615954565b60405180910390fd5b61395260008383600161319e565b61395b81612d50565b1561399b576040517f08c379a000000000000000000000000000000000000000000000000000000000815260040161399290615954565b60405180910390fd5b600160fe60008473ffffffffffffffffffffffffffffffffffffffff1673ffffffffffffffffffffffffffffffffffffffff168152602001908152602001600020600082825401925050819055508160fd600083815260200190815260200160002060006101000a81548173ffffffffffffffffffffffffffffffffffffffff021916908373ffffffffffffffffffffffffffffffffffffffff160217905550808273ffffffffffffffffffffffffffffffffffffffff16600073ffffffffffffffffffffffffffffffffffffffff167fddf252ad1be2c89b69c2b068fc378daa952ba7f163c4a11628f55a4df523b3ef60405160405180910390a4613aa56000838360016132c4565b5050565b6000818310613ac157613abc8284613ad4565b613acc565b613acb8383613ad4565b5b905092915050565b600082600052816020526040600020905092915050565b6000604051905090565b600080fd5b600080fd5b60007fffffffff0000000000000000000000000000000000000000000000000000000082169050919050565b613b3481613aff565b8114613b3f57600080fd5b50565b600081359050613b5181613b2b565b92915050565b600060208284031215613b6d57613b6c613af5565b5b6000613b7b84828501613b42565b91505092915050565b60008115159050919050565b613b9981613b84565b82525050565b6000602082019050613bb46000830184613b90565b92915050565b600081519050919050565b600082825260208201905092915050565b60005b83811015613bf4578082015181840152602081019050613bd9565b60008484015250505050565b6000601f19601f8301169050919050565b6000613c1c82613bba565b613c268185613bc5565b9350613c36818560208601613bd6565b613c3f81613c00565b840191505092915050565b60006020820190508181036000830152613c648184613c11565b905092915050565b6000819050919050565b613c7f81613c6c565b8114613c8a57600080fd5b50565b600081359050613c9c81613c76565b92915050565b600060208284031215613cb857613cb7613af5565b5b6000613cc684828501613c8d565b91505092915050565b600073ffffffffffffffffffffffffffffffffffffffff82169050919050565b6000613cfa82613ccf565b9050919050565b613d0a81613cef565b82525050565b6000602082019050613d256000830184613d01565b92915050565b613d3481613cef565b8114613d3f57600080fd5b50565b600081359050613d5181613d2b565b92915050565b60008060408385031215613d6e57613d6d613af5565b5b6000613d7c85828601613d42565b9250506020613d8d85828601613c8d565b9150509250929050565b613da081613b84565b8114613dab57600080fd5b50565b600081359050613dbd81613d97565b92915050565b600060208284031215613dd957613dd8613af5565b5b6000613de784828501613dae565b91505092915050565b6000819050919050565b613e0381613df0565b8114613e0e57600080fd5b50565b600081359050613e2081613dfa565b92915050565b600060208284031215613e3c57613e3b613af5565b5b6000613e4a84828501613e11565b91505092915050565b600080600060608486031215613e6c57613e6b613af5565b5b6000613e7a86828701613d42565b9350506020613e8b86828701613d42565b9250506040613e9c86828701613c8d565b9150509250925092565b60008060408385031215613ebd57613ebc613af5565b5b6000613ecb85828601613c8d565b9250506020613edc85828601613c8d565b9150509250929050565b613eef81613c6c565b82525050565b6000604082019050613f0a6000830185613d01565b613f176020830184613ee6565b9392505050565b613f2781613df0565b82525050565b6000602082019050613f426000830184613f1e565b92915050565b600060208284031215613f5e57613f5d613af5565b5b6000613f6c84828501613d42565b91505092915050565b600080fd5b7f4e487b7100000000000000000000000000000000000000000000000000000000600052604160045260246000fd5b613fb282613c00565b810181811067ffffffffffffffff82111715613fd157613fd0613f7a565b5b80604052505050565b6000613fe4613aeb565b9050613ff08282613fa9565b919050565b600067ffffffffffffffff8211156140105761400f613f7a565b5b602082029050602081019050919050565b600080fd5b600061403961403484613ff5565b613fda565b9050808382526020820190506020840283018581111561405c5761405b614021565b5b835b8181101561408557806140718882613e11565b84526020840193505060208101905061405e565b5050509392505050565b600082601f8301126140a4576140a3613f75565b5b81356140b4848260208601614026565b91505092915050565b6000602082840312156140d3576140d2613af5565b5b600082013567ffffffffffffffff8111156140f1576140f0613afa565b5b6140fd8482850161408f565b91505092915050565b600060208201905061411b6000830184613ee6565b92915050565b600080fd5b600067ffffffffffffffff82111561414157614140613f7a565b5b61414a82613c00565b9050602081019050919050565b82818337600083830152505050565b600061417961417484614126565b613fda565b90508281526020810184848401111561419557614194614121565b5b6141a0848285614157565b509392505050565b600082601f8301126141bd576141bc613f75565b5b81356141cd848260208601614166565b91505092915050565b6000602082840312156141ec576141eb613af5565b5b600082013567ffffffffffffffff81111561420a57614209613afa565b5b614216848285016141a8565b91505092915050565b6000806040838503121561423657614235613af5565b5b600061424485828601613d42565b925050602061425585828601613dae565b9150509250929050565b6000806040838503121561427657614275613af5565b5b600061428485828601613c8d565b925050602083013567ffffffffffffffff8111156142a5576142a4613afa565b5b6142b18582860161408f565b9150509250929050565b600067ffffffffffffffff8211156142d6576142d5613f7a565b5b6142df82613c00565b9050602081019050919050565b60006142ff6142fa846142bb565b613fda565b90508281526020810184848401111561431b5761431a614121565b5b614326848285614157565b509392505050565b600082601f83011261434357614342613f75565b5b81356143538482602086016142ec565b91505092915050565b6000806000806080858703121561437657614375613af5565b5b600061438487828801613d42565b945050602061439587828801613d42565b93505060406143a687828801613c8d565b925050606085013567ffffffffffffffff8111156143c7576143c6613afa565b5b6143d38782880161432e565b91505092959194509250565b600080604083850312156143f6576143f5613af5565b5b600061440485828601613d42565b925050602061441585828601613d42565b9150509250929050565b7f4e487b7100000000000000000000000000000000000000000000000000000000600052602260045260246000fd5b6000600282049050600182168061446657607f821691505b6020821081036144795761447861441f565b5b50919050565b7f4d696e742053746f707065640000000000000000000000000000000000000000600082015250565b60006144b5600c83613bc5565b91506144c08261447f565b602082019050919050565b600060208201905081810360008301526144e4816144a8565b9050919050565b7f546865207769746868656c6420737570706c79206f66204e465473206861732060008201527f6265656e206578686175737465642e0000000000000000000000000000000000602082015250565b6000614547602f83613bc5565b9150614552826144eb565b604082019050919050565b600060208201905081810360008301526145768161453a565b9050919050565b7f4e487b7100000000000000000000000000000000000000000000000000000000600052601160045260246000fd5b60006145b782613c6c565b9150600082036145ca576145c961457d565b5b600182039050919050565b60006145e082613c6c565b91507fffffffffffffffffffffffffffffffffffffffffffffffffffffffffffffffff82036146125761461161457d565b5b600182019050919050565b600061462882613c6c565b915061463383613c6c565b925082820261464181613c6c565b915082820484148315176146585761465761457d565b5b5092915050565b7f4e487b7100000000000000000000000000000000000000000000000000000000600052601260045260246000fd5b600061469982613c6c565b91506146a483613c6c565b9250826146b4576146b361465f565b5b828204905092915050565b7f4552433732313a20696e76616c696420746f6b656e2049440000000000000000600082015250565b60006146f5601883613bc5565b9150614700826146bf565b602082019050919050565b60006020820190508181036000830152614724816146e8565b9050919050565b7f4e6f742073757065722d77686974656c69737465640000000000000000000000600082015250565b6000614761601583613bc5565b915061476c8261472b565b602082019050919050565b6000602082019050818103600083015261479081614754565b9050919050565b7f496e73756666696369656e742066756e64730000000000000000000000000000600082015250565b60006147cd601283613bc5565b91506147d882614797565b602082019050919050565b600060208201905081810360008301526147fc816147c0565b9050919050565b7f416c7265616479206d696e7465642038204e4654732c2073757065725375707060008201527f6c79000000000000000000000000000000000000000000000000000000000000602082015250565b600061485f602283613bc5565b915061486a82614803565b604082019050919050565b6000602082019050818103600083015261488e81614852565b9050919050565b7f4552433732313a2061646472657373207a65726f206973206e6f74206120766160008201527f6c6964206f776e65720000000000000000000000000000000000000000000000602082015250565b60006148f1602983613bc5565b91506148fc82614895565b604082019050919050565b60006020820190508181036000830152614920816148e4565b9050919050565b60008190508160005260206000209050919050565b60006020601f8301049050919050565b600082821b905092915050565b6000600883026149897fffffffffffffffffffffffffffffffffffffffffffffffffffffffffffffffff8261494c565b614993868361494c565b95508019841693508086168417925050509392505050565b6000819050919050565b60006149d06149cb6149c684613c6c565b6149ab565b613c6c565b9050919050565b6000819050919050565b6149ea836149b5565b6149fe6149f6826149d7565b848454614959565b825550505050565b600090565b614a13614a06565b614a1e8184846149e1565b505050565b5b81811015614a4257614a37600082614a0b565b600181019050614a24565b5050565b601f821115614a8757614a5881614927565b614a618461493c565b81016020851015614a70578190505b614a84614a7c8561493c565b830182614a23565b50505b505050565b600082821c905092915050565b6000614aaa60001984600802614a8c565b1980831691505092915050565b6000614ac38383614a99565b9150826002028217905092915050565b614adc82613bba565b67ffffffffffffffff811115614af557614af4613f7a565b5b614aff825461444e565b614b0a828285614a46565b600060209050601f831160018114614b3d5760008415614b2b578287015190505b614b358582614ab7565b865550614b9d565b601f198416614b4b86614927565b60005b82811015614b7357848901518255600182019150602085019450602081019050614b4e565b86831015614b905784890151614b8c601f891682614a99565b8355505b6001600288020188555050505b505050505050565b7f496e697469616c697a61626c653a20636f6e747261637420697320616c72656160008201527f647920696e697469616c697a6564000000000000000000000000000000000000602082015250565b6000614c01602e83613bc5565b9150614c0c82614ba5565b604082019050919050565b60006020820190508181036000830152614c3081614bf4565b9050919050565b6000819050919050565b600060ff82169050919050565b6000614c69614c64614c5f84614c37565b6149ab565b614c41565b9050919050565b614c7981614c4e565b82525050565b6000602082019050614c946000830184614c70565b92915050565b7f4e6f742077686974656c69737465640000000000000000000000000000000000600082015250565b6000614cd0600f83613bc5565b9150614cdb82614c9a565b602082019050919050565b60006020820190508181036000830152614cff81614cc3565b9050919050565b6000614d1182613c6c565b9150614d1c83613c6c565b9250828201905080821115614d3457614d3361457d565b5b92915050565b7f4d6178206d696e74206c696d6974204e465473207065722077616c6c6574207260008201527f6561636865640000000000000000000000000000000000000000000000000000602082015250565b6000614d96602683613bc5565b9150614da182614d3a565b604082019050919050565b60006020820190508181036000830152614dc581614d89565b9050919050565b7f496e636f7272656374206d696e7420636f756e74000000000000000000000000600082015250565b6000614e02601483613bc5565b9150614e0d82614dcc565b602082019050919050565b60006020820190508181036000830152614e3181614df5565b9050919050565b7f546865207075626c696320737570706c79206f66204e4654732068617320626560008201527f656e206578686175737465642e00000000000000000000000000000000000000602082015250565b6000614e94602d83613bc5565b9150614e9f82614e38565b604082019050919050565b60006020820190508181036000830152614ec381614e87565b9050919050565b7f4552433732313a2063616c6c6572206973206e6f7420746f6b656e206f776e6560008201527f72206f7220617070726f76656400000000000000000000000000000000000000602082015250565b6000614f26602d83613bc5565b9150614f3182614eca565b604082019050919050565b60006020820190508181036000830152614f5581614f19565b9050919050565b600081905092915050565b60008154614f748161444e565b614f7e8186614f5c565b94506001821660008114614f995760018114614fae57614fe1565b60ff1983168652811515820286019350614fe1565b614fb785614927565b60005b83811015614fd957815481890152600182019150602081019050614fba565b838801955050505b50505092915050565b6000614ff582613bba565b614fff8185614f5c565b935061500f818560208601613bd6565b80840191505092915050565b60006150278285614f67565b91506150338284614fea565b91508190509392505050565b7f4e6f7468696e6720746f20616464000000000000000000000000000000000000600082015250565b6000615075600e83613bc5565b91506150808261503f565b602082019050919050565b600060208201905081810360008301526150a481615068565b9050919050565b7f4f776e61626c653a206e6577206f776e657220697320746865207a65726f206160008201527f6464726573730000000000000000000000000000000000000000000000000000602082015250565b6000615107602683613bc5565b9150615112826150ab565b604082019050919050565b60006020820190508181036000830152615136816150fa565b9050919050565b60006040820190506151526000830185613d01565b61515f6020830184613d01565b9392505050565b60008151905061517581613d97565b92915050565b60006020828403121561519157615190613af5565b5b600061519f84828501615166565b91505092915050565b7f5265656e7472616e637947756172643a207265656e7472616e742063616c6c00600082015250565b60006151de601f83613bc5565b91506151e9826151a8565b602082019050919050565b6000602082019050818103600083015261520d816151d1565b9050919050565b7f4552433732313a20617070726f76616c20746f2063757272656e74206f776e6560008201527f7200000000000000000000000000000000000000000000000000000000000000602082015250565b6000615270602183613bc5565b915061527b82615214565b604082019050919050565b6000602082019050818103600083015261529f81615263565b9050919050565b7f4552433732313a20617070726f76652063616c6c6572206973206e6f7420746f60008201527f6b656e206f776e6572206f7220617070726f76656420666f7220616c6c000000602082015250565b6000615302603d83613bc5565b915061530d826152a6565b604082019050919050565b60006020820190508181036000830152615331816152f5565b9050919050565b7f4f776e61626c653a2063616c6c6572206973206e6f7420746865206f776e6572600082015250565b600061536e602083613bc5565b915061537982615338565b602082019050919050565b6000602082019050818103600083015261539d81615361565b9050919050565b7f496e697469616c697a61626c653a20636f6e7472616374206973206e6f74206960008201527f6e697469616c697a696e67000000000000000000000000000000000000000000602082015250565b6000615400602b83613bc5565b915061540b826153a4565b604082019050919050565b6000602082019050818103600083015261542f816153f3565b9050919050565b7f455243323938313a20726f79616c7479206665652077696c6c2065786365656460008201527f2073616c65507269636500000000000000000000000000000000000000000000602082015250565b6000615492602a83613bc5565b915061549d82615436565b604082019050919050565b600060208201905081810360008301526154c181615485565b9050919050565b7f455243323938313a20696e76616c696420726563656976657200000000000000600082015250565b60006154fe601983613bc5565b9150615509826154c8565b602082019050919050565b6000602082019050818103600083015261552d816154f1565b9050919050565b7f4552433732313a207472616e7366657220746f206e6f6e20455243373231526560008201527f63656976657220696d706c656d656e7465720000000000000000000000000000602082015250565b6000615590603283613bc5565b915061559b82615534565b604082019050919050565b600060208201905081810360008301526155bf81615583565b9050919050565b7f4552433732313a207472616e736665722066726f6d20696e636f72726563742060008201527f6f776e6572000000000000000000000000000000000000000000000000000000602082015250565b6000615622602583613bc5565b915061562d826155c6565b604082019050919050565b6000602082019050818103600083015261565181615615565b9050919050565b7f4552433732313a207472616e7366657220746f20746865207a65726f2061646460008201527f7265737300000000000000000000000000000000000000000000000000000000602082015250565b60006156b4602483613bc5565b91506156bf82615658565b604082019050919050565b600060208201905081810360008301526156e3816156a7565b9050919050565b60006156f582613c6c565b915061570083613c6c565b92508282039050818111156157185761571761457d565b5b92915050565b7f4e487b7100000000000000000000000000000000000000000000000000000000600052603260045260246000fd5b7f4552433732313a20617070726f766520746f2063616c6c657200000000000000600082015250565b6000615783601983613bc5565b915061578e8261574d565b602082019050919050565b600060208201905081810360008301526157b281615776565b9050919050565b600081519050919050565b600082825260208201905092915050565b60006157e0826157b9565b6157ea81856157c4565b93506157fa818560208601613bd6565b61580381613c00565b840191505092915050565b60006080820190506158236000830187613d01565b6158306020830186613d01565b61583d6040830185613ee6565b818103606083015261584f81846157d5565b905095945050505050565b60008151905061586981613b2b565b92915050565b60006020828403121561588557615884613af5565b5b60006158938482850161585a565b91505092915050565b7f4552433732313a206d696e7420746f20746865207a65726f2061646472657373600082015250565b60006158d2602083613bc5565b91506158dd8261589c565b602082019050919050565b60006020820190508181036000830152615901816158c5565b9050919050565b7f4552433732313a20746f6b656e20616c7265616479206d696e74656400000000600082015250565b600061593e601c83613bc5565b915061594982615908565b602082019050919050565b6000602082019050818103600083015261596d81615931565b905091905056fe68747470733a2f2f697066732e696f2f697066732f516d50487439725a48694e46344b36737579644271376d66624757736f4d634d6b356634324550714b545a376a7aa2646970667358221220efb74c35db26aa7a38866cd33cb181fca75bcf8864963ffd7aa38c15e64c17ca64736f6c63430008110033",
  "immutableReferences": {},
  "source": "// SPDX-License-Identifier: MIT\r\npragma solidity ^0.8.13;\r\n\r\nimport \"@openzeppelin/contracts-upgradeable/proxy/utils/Initializable.sol\";\r\nimport \"@openzeppelin/contracts-upgradeable/access/OwnableUpgradeable.sol\";\r\nimport \"@openzeppelin/contracts-upgradeable/token/ERC721/IERC721Upgradeable.sol\";\r\nimport \"@openzeppelin/contracts-upgradeable/security/PausableUpgradeable.sol\";\r\nimport \"@openzeppelin/contracts-upgradeable/token/ERC721/extensions/ERC721BurnableUpgradeable.sol\";\r\nimport \"@openzeppelin/contracts-upgradeable/security/ReentrancyGuardUpgradeable.sol\";\r\nimport \"@openzeppelin/contracts-upgradeable/utils/CountersUpgradeable.sol\";\r\nimport \"@openzeppelin/contracts-upgradeable/token/common/ERC2981Upgradeable.sol\";\r\nimport \"@openzeppelin/contracts-upgradeable/utils/cryptography/MerkleProofUpgradeable.sol\"; //\r\nimport \"operator-filter-registry/src/upgradeable/DefaultOperatorFiltererUpgradeable.sol\";\r\nimport \"@openzeppelin/contracts-upgradeable/utils/StringsUpgradeable.sol\";\r\n\r\ncontract ContendersEGNFT is\r\n    Initializable,\r\n    ERC2981Upgradeable,\r\n    OwnableUpgradeable,\r\n    IERC721Upgradeable,\r\n    PausableUpgradeable,\r\n    ERC721BurnableUpgradeable,\r\n    ReentrancyGuardUpgradeable,\r\n    OperatorFiltererUpgradeable\r\n{\r\n    using CountersUpgradeable for CountersUpgradeable.Counter;\r\n    using StringsUpgradeable for uint256;\r\n\r\n    CountersUpgradeable.Counter private _tokenIdCounter;\r\n\r\n    bytes32 public rootWhite;\r\n    bytes32 public rootSuper;\r\n\r\n    mapping(address => uint256) public mintedNFTSPerPublic; // tracks the number of NFTs minted by each whitelisted wallet\r\n    mapping(address => uint256) public mintedNFTSPerSuper;\r\n    uint256 public publicSupply; // the initial number of NFTs available for public minting\r\n    uint256 public superSupply; // super whitelist\r\n    uint256 public withheldSupply; // the initial number of NFTs withheld for the team\r\n\r\n    bool public isRevealed; // flag for revealing\r\n\r\n    // Variables for minting NFTs\r\n    uint256 public mintCost; // the cost to mint a single NFT\r\n    uint256 public maxNFTSPerPublic; // the maximum number of NFTs that can be minted by a single wallet\r\n    uint256 public maxNFTSPerSuper;\r\n\r\n    string public baseMetadataURI;\r\n    bool public isStopped;\r\n\r\n    // Events\r\n    event Mint(address indexed _minter, address indexed _owner, uint256 _id); // emitted when a wallet mints an NFT\r\n    event Burn(address indexed _from, uint256 _id); // emitted when an NFT is burned\r\n\r\n    function initialize() public initializer {\r\n        __Ownable_init();\r\n        __ReentrancyGuard_init();\r\n        publicSupply = 7750;\r\n        withheldSupply = 650;\r\n        superSupply = 1600;\r\n        mintCost = 0.01 ether;\r\n        maxNFTSPerPublic = 4;\r\n        maxNFTSPerSuper = 8;\r\n        isRevealed = false;\r\n        _setDefaultRoyalty(msg.sender, 650); //royalty of 6.5%\r\n        baseMetadataURI = \"https://ipfs.io/ipfs/QmPHt9rZHiNF4K6suydBq7mfbGWsoMcMk5f42EPqKTZ7jz\";\r\n    }\r\n\r\n    function supportsInterface(\r\n        bytes4 interfaceId //erc2981\r\n    )\r\n        public\r\n        view\r\n        virtual\r\n        override(ERC721Upgradeable, ERC2981Upgradeable, IERC165Upgradeable)\r\n        returns (bool)\r\n    {\r\n        return super.supportsInterface(interfaceId);\r\n    }\r\n\r\n    function isValidWhite(bytes32[] memory _proof)\r\n        public\r\n        view\r\n        returns (bool)\r\n    {\r\n        bytes32 leaf = keccak256(abi.encode(msg.sender));\r\n        return MerkleProofUpgradeable.verify(_proof, rootWhite, leaf);\r\n    }\r\n\r\n     function isValidSuper(bytes32[] memory _proof)\r\n        public\r\n        view\r\n        returns (bool)\r\n    {\r\n        bytes32 leaf = keccak256(abi.encode(msg.sender));\r\n        return MerkleProofUpgradeable.verify(_proof, rootSuper, leaf);\r\n    }\r\n\r\n    function setRootWhite(bytes32 _root) public onlyOwner {\r\n        rootWhite = _root;\r\n    }\r\n\r\n    function setRootSuper(bytes32 _root) public onlyOwner {\r\n        rootSuper = _root;\r\n    }\r\n\r\n\r\n    function mintPublic(uint256 _numberOfNFTs, bytes32[] memory _proof) public payable nonReentrant {\r\n        require(!isStopped, \"Mint Stopped\");\r\n        require(isValidWhite(_proof), \"Not whitelisted\");\r\n        require(\r\n            mintedNFTSPerPublic[msg.sender] + _numberOfNFTs <= maxNFTSPerPublic,\r\n            \"Max mint limit NFTs per wallet reached\"\r\n        );\r\n        require(\r\n            _numberOfNFTs >= 1 && _numberOfNFTs <= 4,\r\n            \"Incorrect mint count\"\r\n        );\r\n        require(msg.value >= mintCost * _numberOfNFTs, \"Insufficient funds\");\r\n        require(\r\n            publicSupply >= _numberOfNFTs,\r\n            \"The public supply of NFTs has been exhausted.\"\r\n        );\r\n\r\n        //check number of nfts to mint\r\n        if (_numberOfNFTs == 1) {\r\n            uint256 tokenId = _tokenIdCounter.current();\r\n            _safeMint(msg.sender, tokenId);\r\n            mintedNFTSPerPublic[msg.sender]++;\r\n            publicSupply--;\r\n            _tokenIdCounter.increment();\r\n            emit Mint(msg.sender, msg.sender, tokenId);\r\n        } else if (_numberOfNFTs > 1 && _numberOfNFTs <= maxNFTSPerPublic) {\r\n            for (uint256 i = 0; i < maxNFTSPerPublic; i++) {\r\n                uint256 tokenId = _tokenIdCounter.current();\r\n                _safeMint(msg.sender, tokenId);\r\n                mintedNFTSPerPublic[msg.sender]++;\r\n                publicSupply--;\r\n                _tokenIdCounter.increment();\r\n                emit Mint(msg.sender, msg.sender, tokenId);\r\n            }\r\n        }\r\n    }\r\n\r\n    function mintSuper(bytes32[] memory _proof) public payable nonReentrant {\r\n        require(!isStopped, \"Mint Stopped\");\r\n        require(isValidSuper(_proof), \"Not super-whitelisted\");\r\n        require(msg.value >= mintCost * maxNFTSPerSuper, \"Insufficient funds\");\r\n        require(\r\n            mintedNFTSPerSuper[msg.sender] >= maxNFTSPerSuper,\r\n            \"Already minted 8 NFTs, superSupply\"\r\n        );\r\n\r\n        for (uint256 i = 0; i < maxNFTSPerSuper; i++) {\r\n            uint256 tokenId = _tokenIdCounter.current();\r\n            _safeMint(msg.sender, tokenId);\r\n            mintedNFTSPerSuper[msg.sender]++;\r\n            superSupply--;\r\n            _tokenIdCounter.increment();\r\n            emit Mint(msg.sender, msg.sender, tokenId);\r\n        }\r\n    }\r\n\r\n    function mintWithheld(address _to, uint256 _numberOfNFTs)\r\n        public\r\n        onlyOwner\r\n        nonReentrant\r\n    {\r\n        require(!isStopped, \"Mint Stopped\");\r\n        require(\r\n            withheldSupply > 0,\r\n            \"The withheld supply of NFTs has been exhausted.\"\r\n        );\r\n        if (_numberOfNFTs == 1) {\r\n            uint256 tokenId = _tokenIdCounter.current();\r\n            _safeMint(_to, tokenId);\r\n            withheldSupply--;\r\n            _tokenIdCounter.increment();\r\n            emit Mint(msg.sender, _to, tokenId);\r\n        } else if (_numberOfNFTs > 1) {\r\n            for (uint256 i = 0; i < _numberOfNFTs; i++) {\r\n                uint256 tokenId = _tokenIdCounter.current();\r\n                _safeMint(msg.sender, tokenId);\r\n                withheldSupply--;\r\n                _tokenIdCounter.increment();\r\n                emit Mint(msg.sender, msg.sender, tokenId);\r\n            }\r\n        }\r\n    }\r\n\r\n    function burn(uint256 _id) public override nonReentrant {\r\n        _burn(_id);\r\n        emit Burn(msg.sender, _id);\r\n    }\r\n\r\n    function revealAll() public onlyOwner {\r\n        isRevealed = true;\r\n    }\r\n\r\n    function tokenURI(uint256 _id) public view override returns (string memory) {\r\n        if (isRevealed)\r\n            return string(abi.encodePacked(baseMetadataURI, _id.toString()));\r\n        return baseMetadataURI;\r\n    }\r\n\r\n\r\n    //operator-filterer-registry part\r\n\r\n    function setApprovalForAll(address operator, bool approved)\r\n        public\r\n        override(ERC721Upgradeable, IERC721Upgradeable)\r\n        onlyAllowedOperatorApproval(operator)\r\n        nonReentrant\r\n    {\r\n        super.setApprovalForAll(operator, approved);\r\n    }\r\n\r\n    function approve(address operator, uint256 tokenId)\r\n        public\r\n        override(ERC721Upgradeable, IERC721Upgradeable)\r\n        onlyAllowedOperatorApproval(operator)\r\n        nonReentrant\r\n    {\r\n        super.approve(operator, tokenId);\r\n    }\r\n\r\n    function transferFrom(\r\n        address from,\r\n        address to,\r\n        uint256 tokenId\r\n    )\r\n        public\r\n        override(ERC721Upgradeable, IERC721Upgradeable)\r\n        onlyAllowedOperator(from)\r\n    {\r\n        super.transferFrom(from, to, tokenId);\r\n    }\r\n\r\n    function safeTransferFrom(\r\n        address from,\r\n        address to,\r\n        uint256 tokenId\r\n    )\r\n        public\r\n        override(ERC721Upgradeable, IERC721Upgradeable)\r\n        onlyAllowedOperator(from)\r\n    {\r\n        super.safeTransferFrom(from, to, tokenId);\r\n    }\r\n    //operator-filterer-registry part-end//\r\n\r\n    function withdraw(address _to) external onlyOwner {\r\n        uint256 balance = address(this).balance;\r\n        payable(_to).transfer(balance);\r\n    }\r\n\r\n    function setMintCost(uint256 _cost) public onlyOwner {\r\n        mintCost = _cost;\r\n    }\r\n\r\n    function setBaseMetadataURI(string memory _newBaseMetadataUri)\r\n        public\r\n        onlyOwner\r\n    {\r\n        baseMetadataURI = _newBaseMetadataUri;\r\n    }\r\n\r\n    function setAction(bool _action)   ///activate or deactivate minting(true --> stopped)\r\n        public\r\n        onlyOwner\r\n    {\r\n        isStopped = _action;\r\n    }\r\n\r\n    //superSupply decreased to zero, publicSupply increased for not minted super\r\n\r\n    function addToPublicSupply() public onlyOwner {\r\n\r\n        require(superSupply > 0, \"Nothing to add\");\r\n\r\n        publicSupply += superSupply;\r\n        superSupply = 0; \r\n    }\r\n\r\n\r\n}\r\n",
  "sourcePath": "G:\\currentWork\\eden_genesis\\eg_contenders_sc\\contracts\\ContendersEGNFT.sol",
  "compiler": {
    "name": "solc",
    "version": "0.8.17+commit.8df45f5f.Emscripten.clang"
  },
  "schemaVersion": "3.4.12",
  "updatedAt": "2023-02-23T09:57:05.683Z",
  "devdoc": {
    "kind": "dev",
    "methods": {
      "balanceOf(address)": {
        "details": "See {IERC721-balanceOf}."
      },
      "getApproved(uint256)": {
        "details": "See {IERC721-getApproved}."
      },
      "isApprovedForAll(address,address)": {
        "details": "See {IERC721-isApprovedForAll}."
      },
      "name()": {
        "details": "See {IERC721Metadata-name}."
      },
      "owner()": {
        "details": "Returns the address of the current owner."
      },
      "ownerOf(uint256)": {
        "details": "See {IERC721-ownerOf}."
      },
      "paused()": {
        "details": "Returns true if the contract is paused, and false otherwise."
      },
      "renounceOwnership()": {
        "details": "Leaves the contract without owner. It will not be possible to call `onlyOwner` functions anymore. Can only be called by the current owner. NOTE: Renouncing ownership will leave the contract without an owner, thereby removing any functionality that is only available to the owner."
      },
      "royaltyInfo(uint256,uint256)": {
        "details": "Returns how much royalty is owed and to whom, based on a sale price that may be denominated in any unit of exchange. The royalty amount is denominated and should be paid in that same unit of exchange."
      },
      "safeTransferFrom(address,address,uint256,bytes)": {
        "details": "See {IERC721-safeTransferFrom}."
      },
      "symbol()": {
        "details": "See {IERC721Metadata-symbol}."
      },
      "transferOwnership(address)": {
        "details": "Transfers ownership of the contract to a new account (`newOwner`). Can only be called by the current owner."
      }
    },
    "version": 1
  },
  "userdoc": {
    "errors": {
      "OperatorNotAllowed(address)": [
        {
          "notice": "Emitted when an operator is not allowed."
        }
      ]
    },
    "kind": "user",
    "methods": {},
    "version": 1
  }
}